:020000040000FA
:10000000A85F0020150200001D0200001F02000072
:100010002102000023020000250200000000000071
:1000200000000000000000000000000027020000A7
:1000300029020000000000002B0200002D02000039
:100040002F0200002F0200002F0200002F020000EC
:100050002F0200002F0200002F0200002F020000DC
:100060002F0200002F0200002F0200002F020000CC
:100070002F0200002F0200002F0200002F020000BC
:100080002F0200002F0200002F0200002F020000AC
:100090002F0200002F0200002F0200002F0200009C
:1000A0002F0200002F0200002F0200002F0200008C
:1000B0002F0200002F0200000000000000000000DE
:1000C0002F0200002F0200002F0200002F0200006C
:1000D0002F0200002F0200002F020000000000008D
:1000E0000000000000000000000000000000000010
:1000F0000000000000000000000000000000000000
:1001000000000000000000000000000000000000EF
:1001100000000000000000000000000000000000DF
:1001200000000000000000000000000000000000CF
:1001300000000000000000000000000000000000BF
:1001400000000000000000000000000000000000AF
:10015000000000000000000000000000000000009F
:10016000000000000000000000000000000000008F
:10017000000000000000000000000000000000007F
:10018000000000000000000000000000000000006F
:10019000000000000000000000000000000000005F
:1001A000000000000000000000000000000000004F
:1001B000000000000000000000000000000000003F
:1001C000000000000000000000000000000000002F
:1001D000000000000000000000000000000000001F
:1001E000000000000000000000000000000000000F
:1001F00000000000000000000000000000000000FF
:10020000DFF80CD000F02AF800480047790C000015
:10021000A85F00200648804706480047FEE7FEE743
:10022000FEE7FEE7FEE7FEE7FEE7FEE7FEE7FEE7A6
:10023000810200000102000040EA01039B0703D095
:1002400009E008C9121F08C0042AFAD203E011F815
:10025000013B00F8013B521EF9D27047064C074D96
:1002600006E0E06840F0010394E807009847103486
:10027000AC42F6D3FFF7C8FFA40D0000C40D000088
:10028000F0B5B5480023021D0178101D01254FF07F
:10029000805406290BD11678360708D10678C6F3A4
:1002A0000316032E06D0042E04D0052E02D00629F4
:1002B00007D00EE0B4F82463A84FC6F304263E60CE
:1002C00002E01678360704D10678C6F30316032E2B
:1002D00002D0062904D00FE0A24FA14E7E670EE0A7
:1002E0001678360708D10678C6F30316032E06D013
:1002F000042E04D0052E02D0062907D00EE0D4F833
:100300004462994FC6F342363E6002E016783607E3
:1003100004D10678C6F30316032E02D0062906D0B0
:1003200011E0924E376827F0807737600EE016783C
:10033000360708D10678C6F30316032E06D0042E1E
:1003400004D0052E02D006290AD011E04FF08046D5
:10035000C6F80C31C6F81031834E361F336002E008
:100360001678360704D10678C6F30316032E02D09A
:10037000062905D00CE07C4F032664373E600AE076
:100380001678360704D10678C6F30316032E02D07A
:1003900006290DD014E0764F05263E60744E78365F
:1003A0003560734E083633603F263F1D3E6002E0E5
:1003B0001678360704D10678C6F30316052E02D048
:1003C000062957D062E06B4E36686B4F3E60694E2F
:1003D000361D36683F1D3E60664E083636683F1D46
:1003E0003E60644E0C3636683F1D3E60614E1036EE
:1003F00036683F1D3E605F4E143636683F1D3E60D6
:100400005C4E183636685C4F20373E60594E1C36BD
:1004100036683F1D3E60574E203636683F1D3E60B1
:10042000544E243636683F1D3E60524E283636689C
:100430003F1D3E604F4E2C3636683F1D3E604D4E90
:10044000303636684C4F40373E604A4E3436366858
:100450003F1D3E60474E383636683F1D3E60454E74
:100460003C3636683F1D3E60424E403636683F1D82
:100470003E6002E01678360708D10678C6F3031608
:10048000032E06D0042E04D0052E02D0062907D054
:1004900019E0D4F85812394A01F04F01116002E016
:1004A000117809070FD10078C0F30310032803D097
:1004B000042801D0052806D131480168C90702D0B7
:1004C0006FF001010160D4F83001062808D1D4F89A
:1004D0003401062804D12B48016841F48061016091
:1004E00022487438016841F470010160BFF34F8FF6
:1004F000BFF36F8F4FF01021D1F80002002803DB0B
:10050000D1F80402002822DA1F4A15601F48046847
:10051000002CFCD01524C1F800420568002DFCD049
:10052000C1F8044201680029FCD013600168002969
:10053000FCD0BFF34F8F0D48F0380168144A01F426
:10054000E06111430160BFF34F8F00BFFDE7124927
:1005500010480860F0BD0000E00F00F04035014099
:100560000DF0ADBA00C007403C050040FCED00E0D6
:10057000105600400404001020C50040E40E004066
:10058000000400403C17004004E5014000E4014045
:100590000400FA050090D0030000002002E008C823
:1005A000121F08C1002AFAD170477047002001E0ED
:1005B00001C1121F002AFBD1704700002DE9FC4148
:1005C0000646C0074FF000050ED0104F0024012250
:1005D000385D009500231146019500F083FB641CF3
:1005E000042CF4D300F01CF8B0070DD5074E0024FE
:1005F000361D0022305D032300951146019500F061
:1006000071FB641C042CF4D3BDE8FC81990D00003F
:100610000249085C012100F077BB0000990D000041
:1006200010B500242046FFF7F3FF641C042CF9D317
:1006300010BD00002DE9F04F9DB00746002001904D
:10064000EEA08846D0E90010CDE9141014464022EF
:10065000ECA103A8FFF7F0FD36220020F94E01259A
:10066000C11700EB517308EBE30123F00703C31A32
:100670000978C3F1070305FA03F3194000D00121FB
:1006800046F82010401C7028EADB7020C11700EBF0
:10069000517107EBE10321F00701411A1B78C1F109
:1006A000070105FA01F10B4201D0012100E0002110
:1006B00046F82010401C7F28E8DBE34B01200DF1B9
:1006C0000C0B0DF1500E002143F820104FEA060AE2
:1006D00056F821707FB100FB01F74FF07F0C97FBBC
:1006E000FCF80CFB187C1EF80C7053F820C087EA4D
:1006F0000C0743F82070491C7F29E9DB53F82010D0
:1007000009B1012701971BF8011043F82010401C84
:100710009042D8DD019800287ED0CC4ECA490020F6
:1007200030604968CA4B71600121DD661860451E62
:1007300043F8215003EB8107491CF8669142F7DB2F
:10074000C44900200860486001F5FE71C1E900500D
:10075000BE49401C51F820101A91491C02D0411E7C
:10076000BA4E1EE0BB4900EBC00505EB450551F84C
:10077000206001EB8001D8464E60002103EB850527
:100780000BE000BF55F8217005EB810CCCF86C70C4
:1007900018F8077045F82170491C8E42F2DA88E09B
:1007A000491E56F821506D1C22D0002910DDAA4F99
:1007B0000D466D1E56F825C0BCF1FF3F06D057F818
:1007C00021C057F82580C44500DA2946002DF0DC09
:1007D000A04D55F8207055F82150B94605446D1AC2
:1007E000AF4208DD9B4D05EB8005C5F8049006E09F
:1007F0000029D5DCECE7974F07EB80077D6000EB25
:10080000C005002705EB4505BC4603EB850500BF89
:1008100005EB87087F1C00E020E1C8F86CC0974218
:10082000F6DB01EBC10C0CEB4C0C03EB8C0CCDF8A4
:1008300064C0DFF820C200275CF821C0CDF860C09A
:1008400020E0199E56F82760B6F1FF3F19D0DFF877
:10085000FCC1DDF868805CF821C0A8EB0C0C0CF141
:100860007F0CB4447F269CFBF6F806FB18CC1EF8E0
:100870000C6007EB000CACEB010C05EB8C0CCCF81E
:100880006C607F1C189EBE42DBDA0021DC460EE065
:1008900005EB810655F82170D6F86C8088EA0708C8
:1008A000C6F86C801CF8076045F82160491C894532
:1008B000EEDA684901EB80014D686749461B01EBA0
:1008C000800190424E6040DADFF87C8108EB8001C5
:1008D00049684E1C06D01EF801605C4901EB80019E
:1008E0004E6004E0594E002106EB80067160012144
:1008F00022E0471A08EB87067668771C1BD000EBCE
:10090000C00707EB470703EB870707EB8107FF6E7D
:100910008FB11BF8077037447F2697FBF6FC06FB68
:100920001C774A4E1EF8077006EB8006D6F804C006
:1009300087EA0C077760491C8D42DADA434901EBFC
:1009400080014F681BF807604E60904202DA1B2D51
:100950007FF7FEAE3F49401C51F820101B297DDC7B
:1009600000EBC00000EB400000225D4603EB80037B
:1009700006E000BF53F82200285C43F82200521C16
:100980009142F7DA2F4A01206C3A04E053F82050E4
:1009900042F82050401C8142F8DADFF8A8B0002568
:1009A0000123ABF1D80B012630464FF07F0910E050
:1009B00052F82070B7F1FF3F0AD007EB000C9CFB08
:1009C000F9F809FB18C742F820701EF807707E403E
:1009D000401C8142ECDA46B91B48C3F17F06D8308F
:1009E00040F825304BF825606D1C5B1C7F2BDADD51
:1009F000A94240D100205B4652463AE00102040879
:100A000010204080FF000107020E0838033F0F1F2F
:100A1000095A3915041C4043107020610A6C5B466A
:100A20003A26162F05361D13415F442D112B717385
:100A3000214D62750B576D235C4A474F3B68276415
:100A400017523077A83D00208C3B002098350020BD
:100A50000400002094370020903900200BE000BFF4
:100A600053F82050401C52F8256086F0010642F8E9
:100A700025608142F4DC702000222270114653462A
:100A800001E07F280BDA13F82050C1F10706B540CA
:100A9000A65C401C3543491CA5540829F1DB1DB058
:100AA000BDE8F08FF0B5DDB016460C460546742261
:100AB00070491CA8FFF7C0FB002001210DF1E40ED6
:100AC00005EBD00200F007031278C3F1070301FA27
:100AD00003F31A4000D001220EF80020401C7F28AA
:100AE000EED32878307068787070A878694620F066
:100AF0000300B070002006460E54401C7028FBDB3B
:100B00005FF00E029DF86F001EF8023043404FF078
:100B10006F0017D00DF1700C1CF80070002F01EB66
:100B2000000717F8017C00D05F400F54401EF3D13E
:100B30009DF8700010B10BB1012000E000208DF88D
:100B4000000007E00B1813F8013C0B54401EF9D1CC
:100B50008DF80060521ED5D5002210460023265481
:100B60007F2A04D3235C23F0010323540DE08F5C20
:100B7000C3F1070C07FA0CF714F800C0521C47EA3F
:100B80000C075B1C2754082BEAD3401C0228E5DB2A
:100B9000A878E978800140EA9100217848402070E7
:100BA000E8782979800140EA9100617848406070D6
:100BB00028796979800140EA9100A1784840A070C5
:100BC0006879A979800140EA9100E1784840E070B5
:100BD000A879E979800140EA9100217948402071A3
:100BE000E879297A800140EA910061794840607192
:100BF000287A697A800140EA9100A1794840A07181
:100C0000687AA97A800140EA9100E1794840E07170
:100C1000A87AE97A800140EA9100217A484020725E
:100C2000E87A297B800140EA9100617A484060724D
:100C3000287B697B800140EA9100A17A4840A0723C
:100C4000687BA97B800140EA9100E17A4840E0722C
:100C5000A87BE97B800140EA9100217B484020731A
:100C6000607BE97B80EA811020F07F0060735DB0DB
:100C7000F0BD0000280D0000E0B00120FFF79EFC51
:100C800040AA20A96846FFF70DFF40AA20A96846A0
:100C9000FFF7D0FC4FF4FA76304600F013F84FF02F
:100CA000A0444FF4805700BFD4F8040527EA00059C
:100CB000C4F8085500F48050C4F80C05304600F024
:100CC00001F8F1E72DE9F041040007D0044E4FF49C
:100CD0007A47751C3846A847641EFAD1BDE8F081F2
:100CE000200D000070B541EA4201DDE904564FF0E5
:100CF000A04441EA830141EA052104EB800041EA76
:100D00000641C0F8001770BD01224FF0A043824099
:100D100011B1C3F808257047C3F80C2570470000CF
:100D20000338FDD8704700000101000101010001F6
:100D300000010100010000000100010100010100AB
:100D4000000100010100000101000100000101019A
:100D50000000000001000000000000010001000090
:100D6000000000010101000001000001010101017A
:100D7000010101000000000001010000000100016C
:100D8000000000000000010101010001010101005B
:100D9000010001000001010001111213140D0E0FDA
:100DA00010000000C40D000000000020040000003E
:100DB0009C050000C80D000004000020A45F000096
:080DC000AC0500000090D00317
:0400000500000201F4
:00000001FF
