:020000040000FA
:10000000E0330020150200001D0200001F02000066
:100010002102000023020000250200000000000071
:1000200000000000000000000000000027020000A7
:1000300029020000000000002B0200002D02000039
:100040002F0200002F0200002F0200002F020000EC
:100050002F0200002F0200002F0200002F020000DC
:100060002F0200002F0200002F0200002F020000CC
:100070002F0200002F0200002F0200002F020000BC
:100080002F0200002F0200002F0200002F020000AC
:100090002F0200002F0200002F0200002F0200009C
:1000A0002F0200002F0200002F0200002F0200008C
:1000B0002F0200002F0200000000000000000000DE
:1000C0002F0200002F0200002F0200002F0200006C
:1000D0002F0200002F0200002F020000000000008D
:1000E0000000000000000000000000000000000010
:1000F0000000000000000000000000000000000000
:1001000000000000000000000000000000000000EF
:1001100000000000000000000000000000000000DF
:1001200000000000000000000000000000000000CF
:1001300000000000000000000000000000000000BF
:1001400000000000000000000000000000000000AF
:10015000000000000000000000000000000000009F
:10016000000000000000000000000000000000008F
:10017000000000000000000000000000000000007F
:10018000000000000000000000000000000000006F
:10019000000000000000000000000000000000005F
:1001A000000000000000000000000000000000004F
:1001B000000000000000000000000000000000003F
:1001C000000000000000000000000000000000002F
:1001D000000000000000000000000000000000001F
:1001E000000000000000000000000000000000000F
:1001F00000000000000000000000000000000000FF
:10020000DFF80CD000F02AF800480047650B00002A
:10021000E03300200648804706480047FEE7FEE737
:10022000FEE7FEE7FEE7FEE7FEE7FEE7FEE7FEE7A6
:10023000810200000102000040EA01039B0703D095
:1002400009E008C9121F08C0042AFAD203E011F815
:10025000013B00F8013B521EF9D27047064C074D96
:1002600006E0E06840F0010394E807009847103486
:10027000AC42F6D3FFF7C8FF200C0000400C000092
:10028000F0B5B5480023021D0178101D01254FF07F
:10029000805406290BD11678360708D10678C6F3A4
:1002A0000316032E06D0042E04D0052E02D00629F4
:1002B00007D00EE0B4F82463A84FC6F304263E60CE
:1002C00002E01678360704D10678C6F30316032E2B
:1002D00002D0062904D00FE0A24FA14E7E670EE0A7
:1002E0001678360708D10678C6F30316032E06D013
:1002F000042E04D0052E02D0062907D00EE0D4F833
:100300004462994FC6F342363E6002E016783607E3
:1003100004D10678C6F30316032E02D0062906D0B0
:1003200011E0924E376827F0807737600EE016783C
:10033000360708D10678C6F30316032E06D0042E1E
:1003400004D0052E02D006290AD011E04FF08046D5
:10035000C6F80C31C6F81031834E361F336002E008
:100360001678360704D10678C6F30316032E02D09A
:10037000062905D00CE07C4F032664373E600AE076
:100380001678360704D10678C6F30316032E02D07A
:1003900006290DD014E0764F05263E60744E78365F
:1003A0003560734E083633603F263F1D3E6002E0E5
:1003B0001678360704D10678C6F30316052E02D048
:1003C000062957D062E06B4E36686B4F3E60694E2F
:1003D000361D36683F1D3E60664E083636683F1D46
:1003E0003E60644E0C3636683F1D3E60614E1036EE
:1003F00036683F1D3E605F4E143636683F1D3E60D6
:100400005C4E183636685C4F20373E60594E1C36BD
:1004100036683F1D3E60574E203636683F1D3E60B1
:10042000544E243636683F1D3E60524E283636689C
:100430003F1D3E604F4E2C3636683F1D3E604D4E90
:10044000303636684C4F40373E604A4E3436366858
:100450003F1D3E60474E383636683F1D3E60454E74
:100460003C3636683F1D3E60424E403636683F1D82
:100470003E6002E01678360708D10678C6F3031608
:10048000032E06D0042E04D0052E02D0062907D054
:1004900019E0D4F85812394A01F04F01116002E016
:1004A000117809070FD10078C0F30310032803D097
:1004B000042801D0052806D131480168C90702D0B7
:1004C0006FF001010160D4F83001062808D1D4F89A
:1004D0003401062804D12B48016841F48061016091
:1004E00022487438016841F470010160BFF34F8FF6
:1004F000BFF36F8F4FF01021D1F80002002803DB0B
:10050000D1F80402002822DA1F4A15601F48046847
:10051000002CFCD01524C1F800420568002DFCD049
:10052000C1F8044201680029FCD013600168002969
:10053000FCD0BFF34F8F0D48F0380168144A01F426
:10054000E06111430160BFF34F8F00BFFDE7124927
:1005500010480860F0BD0000E00F00F04035014099
:100560000DF0ADBA00C007403C050040FCED00E0D6
:10057000105600400404001020C50040E40E004066
:10058000000400403C17004004E5014000E4014045
:100590000400FA050090D0030000002002E008C823
:1005A000121F08C1002AFAD170477047002001E0ED
:1005B00001C1121F002AFBD1704700002DE9FC4148
:1005C0000646C0074FF000050ED0104F0024012250
:1005D000385D009500231146019500F0FBFA641C7C
:1005E000042CF4D300F01CF8B0070DD5074E0024FE
:1005F000361D0022305D032300951146019500F061
:10060000E9FA641C042CF4D3BDE8FC81160C00004C
:100610000249085C012100F0EFBA0000160C00004E
:1006200010B500242046FFF7F3FF641C042CF9D317
:1006300010BD00002DE9F04F0546EBA00F46D0E9B4
:1006400000108DB00024CDE908102022E8A16846F2
:10065000FFF7F2FD1E230020ED490126C21700EB33
:10066000527C07EBEC022CF0070CA0EB0C0C127880
:10067000CCF1070C06FA0CFC12EA0C0200D00122A5
:1006800041F82020401C3828E8DB3820C21700EB56
:10069000527205EBE20722F00702821A3F78C2F19C
:1006A000070206FA02F2174201D0012200E00022FE
:1006B00041F82020401C3F28E8DB0120D54A0025D6
:1006C000EA460DF1200B4FF03F0900BF42F82050E1
:1006D0000021CF4F57F821706FB100FB01F797FB56
:1006E000F9F809FB187C1BF80C7052F820C087EA57
:1006F0000C0742F82070491C3F29EADB52F8201011
:1007000001B101241AF8011042F82010401C98424F
:10071000DCDD002C7DD0C049BE48A1F6C4620D606E
:10072000406848600120D663841E156042F820406E
:1007300002EB8006401CF5639842F7DBB64D0020C3
:10074000FC3528606860FC35C5E90040B249401CB2
:1007500051F820100B91491C02D0411EAE4D1BE0F8
:10076000AD49C0EB0014FC31564651F8205001EB66
:10077000800102EB84044D60002109E054F82170EF
:1007800004EB810CCCF83C70F75D44F82170491CF7
:100790008D42F3DA7DE0491E55F82140641C22D0D9
:1007A000002910DD9B4E0C46F83E641E55F824705F
:1007B0007F1C06D056F8217056F824C0674500DA31
:1007C0002146002CF1DCDFF850E20EF1FC0E5EF861
:1007D00021405EF820700444641AA74206DD0EEB47
:1007E0008004676005E00029D5DCECE70EEB8006AD
:1007F00074600026C0EB0014B44602EB840400BF12
:1008000004EB8608761CC8F83CC09E42F8DB002644
:1008100000E0E6E0C1EB011C02EB8C0CCDF828C037
:100820005EF821E01FE00A9D55F82650B5F1FF3F24
:1008300018D0DFF8E4C1DDF82C805CF821C0A8EB0B
:100840000C0C0CF13F0CAC449CFBF9F809FB18CCE8
:100850001BF80C5006EB000CACEB010C04EB8C0C01
:10086000CCF83C50761CB645DDDA0021D4460EE0CB
:1008700004EB810654F82150D6F83C8088EA05083C
:10088000C6F83C801CF8055044F82150491C8F42A2
:10089000EEDA6149FC3101EB80014E685D49841B51
:1008A000F83901EB800198424C6036DA594C04EB80
:1008B000800149684D1C01D01BF80150564901EBDD
:1008C00080014D6001211FE0451A04EB85056D682C
:1008D0006F1C18D0C0EB001702EB870707EB8107EE
:1008E000FF6B87B11AF807702F4497FBF9FC4A4D4C
:1008F00009FB1C7705EB80051BF80770D5F804C0D1
:1009000087EA0C076F60491C8E42DDDA424901EB31
:1009100080014D681AF805404C60984202DA0F2EAB
:100920007FF714AF3C49401CFC3151F820100F29CF
:1009300057DCC0EB00100023554602EB800405E0B5
:1009400054F82300285C44F823005B1C9942F7DA32
:100950002F4A01203C3A04E054F8203042F820307D
:10096000401C8142F8DADFF8A8A000240123AAF194
:10097000780A012528465E464F4611E052F820804D
:10098000C446B8F1FF3F0AD084449CFBF7F807FB4C
:1009900018CC42F820C016F80CC08CEA0505401CA3
:1009A0008142EBDA45B91B48C3F13F05783040F886
:1009B00024304AF82450641C5B1C3F2BD9DDA14233
:1009C0000FD10020124A534609E000BF53F82040DF
:1009D000401C52F8245085F0010542F82450814211
:1009E000F4DC0DB0BDE8F08F010204081020408057
:1009F000FF000106020C071A03200D2308301B120A
:100A0000041821100E342436092D31261C291338E0
:100A1000E4120020B8110020C80E0020F0B5ADB0DF
:100A200016460C460546302242A10EA8FFF704FCEC
:100A3000002001210DF1740E05EBD00200F0070338
:100A40001278C3F1070301FA03F31A4000D0012220
:100A50000EF80020401C3F28EED3287830706878CC
:100A600070700020064669460E54401C3828FBDB97
:100A70005FF006029DF837001EF8023043404FF049
:100A8000370017D00DF1380C1CF80070002F01EB67
:100A9000000717F8017C00D05F400F54401EF3D1CF
:100AA0009DF8380010B10BB1012000E000208DF856
:100AB000000007E00B1813F8013C0B54401EF9D15D
:100AC0008DF80060521ED5D5002210460023265412
:100AD0002F2A04D3235C23F0010323540DE08F5C01
:100AE000C3F1070C07FA0CF714F800C0521C47EAD0
:100AF0000C075B1C2754082BEAD3401C0228E5DBBB
:100B00002078A978484020706078E9784840607083
:100B1000A07829794840A070E07869794840E07071
:100B20002079A979484020716079E979484060715D
:100B30002DB0F0BD01010001000100000101000124
:100B4000010100000100010101000101010100019A
:100B5000000000000101000001000001010001018E
:100B600000000101B0B00120FFF728FD20AC10AD5E
:100B70006E4601A8A91CA21CFFF750FFA21CA91CCD
:100B8000301DFFF757FD4FF4FA76304600F012F8AB
:100B90004FF0A0444FF48057D4F8040527EA00052D
:100BA000C4F8085500F48050C4F80C05304600F035
:100BB00001F8F1E72DE9F041040007D0044E4FF4AD
:100BC0007A47751C3846A847641EFAD1BDE8F08103
:100BD000100C000070B541EA4201DDE904564FF007
:100BE000A04441EA830141EA052104EB800041EA87
:100BF0000641C0F8001770BD01224FF0A0438240AB
:100C000011B1C3F808257047C3F80C2570470000E0
:100C10000338FDD87047111213140D0E0F10000089
:100C2000400C000000000020040000009C050000B3
:100C3000440C000004000020DC330000AC05000080
:040C40000090D0034D
:0400000500000201F4
:00000001FF
