:020000040000FA
:10000000A82F0020150200001D0200001F020000A2
:100010002102000023020000250200000000000071
:1000200000000000000000000000000027020000A7
:1000300029020000000000002B0200002D02000039
:100040002F0200002F0200002F0200002F020000EC
:100050002F0200002F0200002F0200002F020000DC
:100060002F0200002F0200002F0200002F020000CC
:100070002F0200002F0200002F0200002F020000BC
:100080002F0200002F0200002F0200002F020000AC
:100090002F0200002F0200002F0200002F0200009C
:1000A0002F0200002F0200002F0200002F0200008C
:1000B0002F0200002F0200000000000000000000DE
:1000C0002F0200002F0200002F0200002F0200006C
:1000D0002F0200002F0200002F020000000000008D
:1000E0000000000000000000000000000000000010
:1000F0000000000000000000000000000000000000
:1001000000000000000000000000000000000000EF
:1001100000000000000000000000000000000000DF
:1001200000000000000000000000000000000000CF
:1001300000000000000000000000000000000000BF
:1001400000000000000000000000000000000000AF
:10015000000000000000000000000000000000009F
:10016000000000000000000000000000000000008F
:10017000000000000000000000000000000000007F
:10018000000000000000000000000000000000006F
:10019000000000000000000000000000000000005F
:1001A000000000000000000000000000000000004F
:1001B000000000000000000000000000000000003F
:1001C000000000000000000000000000000000002F
:1001D000000000000000000000000000000000001F
:1001E000000000000000000000000000000000000F
:1001F00000000000000000000000000000000000FF
:10020000DFF80CD000F02AF800480047DD0B0000B2
:10021000A82F00200648804706480047FEE7FEE773
:10022000FEE7FEE7FEE7FEE7FEE7FEE7FEE7FEE7A6
:10023000810200000102000040EA01039B0703D095
:1002400009E008C9121F08C0042AFAD203E011F815
:10025000013B00F8013B521EF9D27047064C074D96
:1002600006E0E06840F0010394E807009847103486
:10027000AC42F6D3FFF7C8FFA00C0000C00C000092
:10028000F0B5B5480023021D0178101D01254FF07F
:10029000805406290BD11678360708D10678C6F3A4
:1002A0000316032E06D0042E04D0052E02D00629F4
:1002B00007D00EE0B4F82463A84FC6F304263E60CE
:1002C00002E01678360704D10678C6F30316032E2B
:1002D00002D0062904D00FE0A24FA14E7E670EE0A7
:1002E0001678360708D10678C6F30316032E06D013
:1002F000042E04D0052E02D0062907D00EE0D4F833
:100300004462994FC6F342363E6002E016783607E3
:1003100004D10678C6F30316032E02D0062906D0B0
:1003200011E0924E376827F0807737600EE016783C
:10033000360708D10678C6F30316032E06D0042E1E
:1003400004D0052E02D006290AD011E04FF08046D5
:10035000C6F80C31C6F81031834E361F336002E008
:100360001678360704D10678C6F30316032E02D09A
:10037000062905D00CE07C4F032664373E600AE076
:100380001678360704D10678C6F30316032E02D07A
:1003900006290DD014E0764F05263E60744E78365F
:1003A0003560734E083633603F263F1D3E6002E0E5
:1003B0001678360704D10678C6F30316052E02D048
:1003C000062957D062E06B4E36686B4F3E60694E2F
:1003D000361D36683F1D3E60664E083636683F1D46
:1003E0003E60644E0C3636683F1D3E60614E1036EE
:1003F00036683F1D3E605F4E143636683F1D3E60D6
:100400005C4E183636685C4F20373E60594E1C36BD
:1004100036683F1D3E60574E203636683F1D3E60B1
:10042000544E243636683F1D3E60524E283636689C
:100430003F1D3E604F4E2C3636683F1D3E604D4E90
:10044000303636684C4F40373E604A4E3436366858
:100450003F1D3E60474E383636683F1D3E60454E74
:100460003C3636683F1D3E60424E403636683F1D82
:100470003E6002E01678360708D10678C6F3031608
:10048000032E06D0042E04D0052E02D0062907D054
:1004900019E0D4F85812394A01F04F01116002E016
:1004A000117809070FD10078C0F30310032803D097
:1004B000042801D0052806D131480168C90702D0B7
:1004C0006FF001010160D4F83001062808D1D4F89A
:1004D0003401062804D12B48016841F48061016091
:1004E00022487438016841F470010160BFF34F8FF6
:1004F000BFF36F8F4FF01021D1F80002002803DB0B
:10050000D1F80402002822DA1F4A15601F48046847
:10051000002CFCD01524C1F800420568002DFCD049
:10052000C1F8044201680029FCD013600168002969
:10053000FCD0BFF34F8F0D48F0380168144A01F426
:10054000E06111430160BFF34F8F00BFFDE7124927
:1005500010480860F0BD0000E00F00F04035014099
:100560000DF0ADBA00C007403C050040FCED00E0D6
:10057000105600400404001020C50040E40E004066
:10058000000400403C17004004E5014000E4014045
:100590000400FA050090D0030000002002E008C823
:1005A000121F08C1002AFAD170477047002001E0ED
:1005B00001C1121F002AFBD1704700002DE9FC4148
:1005C0000646C0074FF000050ED0104F0024012250
:1005D000385D009500231146019500F037FB641C3F
:1005E000042CF4D300F01CF8B0070DD5074E0024FE
:1005F000361D0022305D032300951146019500F061
:1006000025FB641C042CF4D3BDE8FC81960C00008F
:100610000249085C012100F02BBB0000960C000091
:1006200010B500242046FFF7F3FF641C042CF9D317
:1006300010BD00002DE9F04F0746F7A08846D0E92D
:10064000001095B01446CDE90E104FF0000A20229C
:10065000F3A104A8FFF7F0FD16260020F84B0125B2
:10066000C11700EB517208EBE20122F00702821A77
:100670000978C2F1070205FA02F2114000D0012107
:1006800043F82010401C2F28EADB2F20C11700EB75
:10069000517107EBE10221F00701411A1278C1F113
:1006A000070105FA01F10A4201D0012100E0002111
:1006B00043F82010401C3F28E8DBE14A0120DC3AE7
:1006C0000DF1100B0DF1380E002142F8201000BF83
:1006D00053F821707FB100FB01F74FF03F0C97FBFF
:1006E000FCF80CFB187C1EF80C7052F820C087EA4E
:1006F0000C0742F82070491C3F29E9DB52F8201012
:1007000009B14FF0010A1BF8011042F82010401CFB
:10071000B042D9DDBAF1000F70D0CA4F002007F502
:100720003D7138604968A7F6D4227960D56201210D
:100730001060451E42F8215002EB810C491C914685
:10074000CCF82C00B142F5DBBE490020FC3108603A
:100750004860FC31C1E90050BA49401C51F82010F2
:100760001291491C02D0411EB64D1EE0B54900EB66
:100770004007FC3107EBC00751F8205001EB800126
:10078000D8464D60002109EB87020AE052F821703B
:1007900002EB810CCCF82C7018F8077042F821702D
:1007A000491C8D42F2DA8CE0491E55F82120521C7A
:1007B00025D0002910DDA44F0A46521E55F822C04C
:1007C000BCF1FF3F06D057F821C057F82280C4453E
:1007D00000DA1146002AF0DC9A4AFC3252F8207006
:1007E00052F82120BA460244521A97420ADD954A2D
:1007F000FC3202EB8002C2F804A008E00BE1002901
:10080000D2DCE9E78F4FFC3707EB80077A6000EB1B
:100810004002002702EBC008BC4609EB880200BF7B
:1008200002EB87087F1CC8F82CC0B742F8DB01EB4D
:10083000410C0CEBC10809EB880CCDF808C0DFF8BF
:1008400004C200270CF1FC0C5CF821C0CDF844C0B8
:1008500020E0029D55F82750B5F1FF3F19D0DFF891
:10086000E4C1DDF848805CF821C0A8EB0C0C0CF169
:100870003F0CAC443F259CFBF5F805FB18CC1EF85B
:100880000C5007EB000CACEB010C02EB8C0CCCF821
:100890002C507F1C119DBD42DBDA00215F460EE02B
:1008A00002EB810552F821C0D5F82C8088EA0C08AB
:1008B000C5F82C8017F80C5042F82150491C8A4585
:1008C000EEDA6049FC3101EB80014A685E49851A25
:1008D00001EB8001B0424D6042DADFF86481A8F19B
:1008E000DC0808EB80014D68691C06D055491EF8EC
:1008F000055001EB80014D6004E0524D002105EBF5
:1009000080056960012122E0471A08EB87056D68C0
:100910006F1C1BD000EB400707EBC00C09EB8C07EA
:1009200007EB8107FF6A8FB11BF807702F443F2543
:1009300097FBF5FC05FB1C77424D1EF8077005EB95
:100940008005D5F804C087EA0C076F60491C8A420D
:10095000DADA3C4901EB80014F681BF807504D6023
:10096000B04202DA0B2A7FF7F7AE3649401CFC3161
:1009700051F820100B2974DC00EB400707EBC00096
:1009800000225E4609EB800506E000BF55F8220014
:10099000305C45F82200521C9142F7DADFF8A09053
:1009A0000120A9F12C0904E055F8206049F82060E5
:1009B000401C8142F8DADFF888B000250122ABF153
:1009C000580B012630464FF03F0A10E059F82070CE
:1009D000B7F1FF3F0AD007EB000C9CFBFAF80AFBCB
:1009E00018C749F820701EF807707E40401C8142ED
:1009F000ECDA46B91248C2F13F06843840F82520A7
:100A00004BF825606D1C521C3F2ADADDA94228D123
:100A100000205A4623E024E0010204081020408010
:100A2000FF000106020C071A03200D2308301B12D9
:100A3000041821100E342436092D31261C291338B0
:100A4000A80E0020D80A0020D00C002052F8205018
:100A5000401C53F8256086F0010643F8256081426A
:100A6000F4DC2F2200200546255400213F2A0BDA12
:100A700013F82260C1F10707BE40275C491C3E43C2
:100A8000521C26540829F1DB401C0228ECDB15B06F
:100A9000BDE8F08FF0B5ABB016460C4605463022E7
:100AA00042A10CA8FFF7C8FB002001210DF16C0E3C
:100AB00005EBD00200F007031278C3F1070301FA37
:100AC00003F31A4000D001220EF80020401C3F28FA
:100AD000EED328783070687870700020064669463A
:100AE0000E54401C2F28FBDB5FF00F029DF82E00F8
:100AF0001EF8023043404FF02E0017D00DF1300C9D
:100B00001CF80070002F01EB000717F8017C00D0E3
:100B10005F400F54401EF3D19DF8300010B10BB16F
:100B2000012000E000208DF8000007E00B1813F80A
:100B3000013C0B54401EF9D18DF80060521ED5D5F2
:100B400000221046002326542F2A04D3235C23F0CE
:100B5000010323540DE08F5CC3F1070C07FA0CF777
:100B600014F800C0521C47EA0C075B1C2754082BE2
:100B7000EAD3401C0228E5DB2078A97848402070A1
:100B80006078E97848406070A07829794840A07082
:100B9000E07869794840E0702079A979484020716F
:100BA0006079E979484060712BB0F0BD0101000126
:100BB000000100000101000101010000010001012C
:100BC000010001010101000100000000010100001D
:100BD000010000010100010100000101B0B001208D
:100BE000FFF7ECFC20AC10AD6E4601A8A91CA21CBE
:100BF000FFF750FFA21CA91C301DFFF71BFD4FF48F
:100C0000FA76304600F012F84FF0A0444FF48057C7
:100C1000D4F8040527EA0005C4F8085500F480500C
:100C2000C4F80C05304600F001F8F1E72DE9F04179
:100C3000040007D0044E4FF47A47751C3846A84785
:100C4000641EFAD1BDE8F081900C000070B541EA55
:100C50004201DDE904564FF0A04441EA830141EA34
:100C6000052104EB800041EA0641C0F8001770BD81
:100C700001224FF0A043824011B1C3F8082570470C
:100C8000C3F80C25704700000000000000000000C1
:100C90000338FDD87047111213140D0E0F10000009
:100CA000C00C000000000020040000009C050000B3
:100CB000C40C000004000020A42F0000AC050000BC
:040CC0000090D003CD
:0400000500000201F4
:00000001FF
