:020000040000FA
:1000000098DA0020150200001D0200001F02000007
:100010002102000023020000250200000000000071
:1000200000000000000000000000000027020000A7
:1000300029020000000000002B0200002D02000039
:100040002F0200002F0200002F0200002F020000EC
:100050002F0200002F0200002F0200002F020000DC
:100060002F0200002F0200002F0200002F020000CC
:100070002F0200002F0200002F0200002F020000BC
:100080002F0200002F0200002F0200002F020000AC
:100090002F0200002F0200002F0200002F0200009C
:1000A0002F0200002F0200002F0200002F0200008C
:1000B0002F0200002F0200000000000000000000DE
:1000C0002F0200002F0200002F0200002F0200006C
:1000D0002F0200002F0200002F020000000000008D
:1000E0000000000000000000000000000000000010
:1000F0000000000000000000000000000000000000
:1001000000000000000000000000000000000000EF
:1001100000000000000000000000000000000000DF
:1001200000000000000000000000000000000000CF
:1001300000000000000000000000000000000000BF
:1001400000000000000000000000000000000000AF
:10015000000000000000000000000000000000009F
:10016000000000000000000000000000000000008F
:10017000000000000000000000000000000000007F
:10018000000000000000000000000000000000006F
:10019000000000000000000000000000000000005F
:1001A000000000000000000000000000000000004F
:1001B000000000000000000000000000000000003F
:1001C000000000000000000000000000000000002F
:1001D000000000000000000000000000000000001F
:1001E000000000000000000000000000000000000F
:1001F00000000000000000000000000000000000FF
:10020000DFF80CD000F03CF800480047A50B0000D8
:1002100098DA00200648804706480047FEE7FEE7D8
:10022000FEE7FEE7FEE7FEE7FEE7FEE7FEE7FEE7A6
:10023000A50200000102000040EA01039B0703D071
:1002400009E008C9121F08C0042AFAD203E011F815
:10025000013B00F8013B521EF9D27047D2B201E0D7
:1002600000F8012B491EFBD270470022F6E710B5BB
:1002700013460A4604461946FFF7F0FF204610BD14
:10028000064C074D06E0E06840F0010394E80700E3
:1002900098471034AC42F6D3FFF7B6FFA40D000028
:1002A000C40D0000F0B5B5480023021D0178101DF3
:1002B00001254FF0805406290BD11678360708D156
:1002C0000678C6F30316032E06D0042E04D0052E9E
:1002D00002D0062907D00EE0B4F82463A84FC6F375
:1002E00004263E6002E01678360704D10678C6F38D
:1002F0000316032E02D0062904D00FE0A24FA14E10
:100300007E670EE01678360708D10678C6F3031626
:10031000032E06D0042E04D0052E02D0062907D0C5
:100320000EE0D4F84462994FC6F342363E6002E0D4
:100330001678360704D10678C6F30316032E02D0CA
:10034000062906D011E0924E376827F08077376093
:100350000EE01678360708D10678C6F30316032E8A
:1003600006D0042E04D0052E02D006290AD011E0B2
:100370004FF08046C6F80C31C6F81031834E361F58
:10038000336002E01678360704D10678C6F3031608
:10039000032E02D0062905D00CE07C4F03266437DB
:1003A0003E600AE01678360704D10678C6F30316D5
:1003B000032E02D006290DD014E0764F05263E60AC
:1003C000744E78363560734E083633603F263F1DD5
:1003D0003E6002E01678360704D10678C6F30316AD
:1003E000052E02D0062957D062E06B4E36686B4F5F
:1003F0003E60694E361D36683F1D3E60664E0836CB
:1004000036683F1D3E60644E0C3636683F1D3E60C8
:10041000614E103636683F1D3E605F4E14363668BA
:100420003F1D3E605C4E183636685C4F20373E609C
:10043000594E1C3636683F1D3E60574E2036366892
:100440003F1D3E60544E243636683F1D3E60524E7E
:10045000283636683F1D3E604F4E2C3636683F1DAD
:100460003E604D4E303636684C4F40373E604A4E07
:10047000343636683F1D3E60474E383636683F1D7D
:100480003E60454E3C3636683F1D3E60424E40362B
:1004900036683F1D3E6002E01678360708D10678C0
:1004A000C6F30316032E06D0042E04D0052E02D068
:1004B000062907D019E0D4F85812394A01F04F0143
:1004C000116002E0117809070FD10078C0F3031022
:1004D000032803D0042801D0052806D1314801683B
:1004E000C90702D06FF001010160D4F8300106287D
:1004F00008D1D4F83401062804D12B48016841F40E
:100500008061016022487438016841F47001016023
:10051000BFF34F8FBFF36F8F4FF01021D1F8000260
:10052000002803DBD1F80402002822DA1F4A1560F4
:100530001F480468002CFCD01524C1F8004205684F
:10054000002DFCD0C1F8044201680029FCD01360E2
:1005500001680029FCD0BFF34F8F0D48F0380168C7
:10056000144A01F4E06111430160BFF34F8F00BFF3
:10057000FDE7124910480860F0BD0000E00F00F0F0
:10058000403501400DF0ADBA00C007403C050040C9
:10059000FCED00E0105600400404001020C50040AF
:1005A000E40E0040000400403C17004004E5014018
:1005B00000E401400400FA050090D0030000002090
:1005C00002E008C8121F08C1002AFAD1704770471C
:1005D000002001E001C1121F002AFBD1704700007A
:1005E0002DE9FC410646C0074FF000050ED0104F24
:1005F00000240122385D009500231146019500F08A
:1006000007FB641C042CF4D300F01CF8B0070DD5D4
:10061000074E0024361D0022305D0323009511464D
:10062000019500F0F5FA641C042CF4D3BDE8FC81BC
:100630009C0D00000249085C012100F0FBBA00009B
:100640009C0D000010B500242046FFF7F3FF641C4A
:10065000042CF9D310BD00002DE9F04FA5B01446CD
:10066000884607464FF0000AFDA08022D0E900101E
:10067000CDE92010FC496846FFF7DEFD5426002036
:10068000FA4B0125C11700EB517208EBE20122F091
:100690000702821A0978C2F1070205FA02F2114034
:1006A00000D0012143F82010401CD028EADBD020E4
:1006B000C11700EB517207EBE20122F00702821A28
:1006C0000978C2F1070205FA02F2114000D00121B7
:1006D00043F82010401CFF28EADBE54A0120EB46E6
:1006E0000DF1800E002142F8201000BF53F8217058
:1006F0007FB100FB01F74FF0FF0C97FBFCF80CFB00
:10070000187C1EF80C7052F820C087EA0C0742F8DB
:100710002070491CFF29E9DB52F8201009B14FF085
:10072000010A1BF8011042F82010401CB042D9DD2C
:10073000BAF1000F6FD0CF4FCD4900203860496823
:10074000CD4A79600121C2F8A8501060451E42F8D8
:10075000215002EB810C491C9146CCF8A800B14213
:10076000F5DBC64900200860486001F57F71C1E9EA
:100770000050C049401C51F820102491491C02D05F
:10078000411EBC4D1DE0BD49C0EBC00707EB47074C
:1007900051F8205001EB8001D8464D60002109EB53
:1007A000C7020AE052F8217002EB810CCCF8A87065
:1007B00018F8077042F82170491C8D42F2DA86E081
:1007C000491E55F82120521C22D0002910DDAC4FC3
:1007D0000A46521E55F822C0BCF1FF3F06D057F81A
:1007E00021C057F82280C44500DA1146002AF0DC07
:1007F000A24A52F8207052F82120BA460244521AF6
:10080000974209DD9D4A02EB8002C2F804A007E08E
:100810000029D5DCECE70AE1984F07EB80077A6006
:10082000C0EBC002002702EB4208BC4609EBC8023D
:1008300002EB87087F1CC8F8A8C0B742F8DBC1EB01
:10084000C10C0CEB4C0C09EBCC0CCDF88CC0DFF8D8
:100850002CC200275CF821C0CDF888C020E0239D81
:1008600055F82750B5F1FF3F19D0DFF808C2DDF881
:1008700090805CF821C0A8EB0C0C0CF1FF0CAC4490
:10088000FF259CFBF5F805FB18CC1EF80C5007EB78
:10089000000CACEB010C02EB8C0CCCF8A8507F1CCC
:1008A000229DBD42DBDA0021DC460EE002EB810531
:1008B00052F82170D5F8A88088EA0708C5F8A88002
:1008C0001CF8075042F82150491C8A45EEDA6B4962
:1008D00001EB80014A686A49851A01EB8001B04248
:1008E0004D6041DADFF8888108EB80014D68691CB2
:1008F00006D060491EF8055001EB80014D6004E010
:100900005C4D002105EB80056960012123E0471A59
:1009100008EB87056D686F1C1CD0C0EBC00707EBA8
:10092000470C09EBCC0707EB8107D7F8A8708FB10C
:100930001BF807702F44FF2597FBF5FC05FB1C7780
:100940004C4D1EF8077005EB8005D5F804C087EA0A
:100950000C076F60491C8A42D9DA464901EB8001D5
:100960004F681BF807504D60B04202DA2A2A7FF721
:1009700000AF4249401C51F820102A2957DCC0EB37
:10098000C00000EB400000225E4609EBC00505E018
:1009900055F82200305C45F82200521C9142F7DAEB
:1009A000DFF8C8900120A9F1A80904E055F82060FB
:1009B00049F82060401C8142F8DA0025DFF8C4B015
:1009C0000122012630464FF0FF0A10E059F820704E
:1009D000B7F1FF3F0AD007EB000C9CFBFAF80AFBCB
:1009E00018C749F820701EF807707E40401C8142ED
:1009F000ECDA46B92348C2F1FF06A83840F82520B2
:100A00004BF825606D1C521CFF2ADADDA9420ED17D
:100A100000205A4609E000BF52F82050401C53F80D
:100A2000256086F0010643F825608142F4DCD02180
:100A30000020054625540022FF290BDA13F8216017
:100A4000C2F10707BE40275C491C3E43521C265496
:100A5000082AF1DB401C0528ECDB25B0BDE8F08F4F
:100A600001020408102040801C0D000098B60020F0
:100A700050B300205CA700200400002058AB0020E9
:100A800054AF002048B50020F0B5ADF52D7D0C46E3
:100A9000054616460D2165A8FFF7E7FBC42240492D
:100AA00034A8FFF7C9FB002001210DF5D27E00BF5D
:100AB00005EBD00200F007031278C3F1070301FA37
:100AC00003F31A4000D001220EF80020401CFF283A
:100AD000EED32878307068786A4600F001007070B4
:100AE000002006461654401CD028FBDB5FF02E0089
:100AF0009DF8CF101EF800304B404FF0CF0117D0BB
:100B00000DF1D00C1CF80170002F02EB010717F853
:100B1000017C00D05F405754491EF3D19DF8D0109E
:100B200011B10BB1012100E000218DF8001007E0A8
:100B3000531813F8013C5354491EF9D18DF8006045
:100B4000401ED5D50021084600232654F22904D39F
:100B5000235C23F0010323540DE0575CC3F1070C21
:100B600007FA0CF714F800C0491C47EA0C075B1C95
:100B70002754082BEAD3401C0228E5DB697820784B
:100B800001F0FE014840207001202A18215C5278B3
:100B900051402154401C1F28F7DB0DF52D7DF0BD81
:100BA000580C0000E0B00120FFF71AFD40AA20A970
:100BB0006846FFF769FF40AA20A96846FFF74CFD89
:100BC0004FF4FA76304600F013F84FF0A0444FF49B
:100BD000805700BFD4F8040527EA0005C4F808557B
:100BE00000F48050C4F80C05304600F001F8F1E73D
:100BF0002DE9F041040007D0044E4FF47A47751CEC
:100C00003846A847641EFAD1BDE8F081500C0000B8
:100C100070B541EA4201DDE904564FF0A04441EAD3
:100C2000830141EA052104EB800041EA0641C0F856
:100C3000001770BD01224FF0A043824011B1C3F8EC
:100C400008257047C3F80C2570470000000000001D
:100C50000338FDD8704700000101000101010100C7
:100C6000010001010000000000010001000100017D
:100C7000000000010101010100000101010001006B
:100C8000010000010100000101000100000000005E
:100C9000000100000000010100000100000001004F
:100CA000000001010001000100010100010001013B
:100CB000010001010001000001000101010000012B
:100CC000010000000101000000000101010000011D
:100CD000000001010101000101010001000000010B
:100CE0000001000000000100000100000000000100
:100CF00001010100000100010100000100010000EC
:100D000001000001000100010101010100010100D9
:100D1000000001000001010001000000FF0001E7E8
:100D200002CFE83B0323D09AE9143CB7049F244246
:100D3000D1769BFBEAF5150B3D82B892057AA04F60
:100D40002571436AD2E077DD9CF2FC20EBD5F68773
:100D5000162A0C8C3EE3834BB9BF935E06467BC3D9
:100D6000A13550A7266D72CB44336B31D328E1BD3A
:100D7000786FDEF09D74F380FDCD2112ECA3D66276
:100D8000F737886617522BB10DA98D593F08E497A4
:100D900084484CDABA7DC0C894C55FAE11121314F2
:100DA0000D0E0F10C40D0000000000200400000014
:100DB000C0050000C80D00000400002094DA000007
:080DC000D00500000090D003F3
:0400000500000201F4
:00000001FF
