:020000040000FA
:1000000068570020150200001D0200001F020000BA
:100010002102000023020000250200000000000071
:1000200000000000000000000000000027020000A7
:1000300029020000000000002B0200002D02000039
:100040002F0200002F0200002F0200002F020000EC
:100050002F0200002F0200002F0200002F020000DC
:100060002F0200002F0200002F0200002F020000CC
:100070002F0200002F0200002F0200002F020000BC
:100080002F0200002F0200002F0200002F020000AC
:100090002F0200002F0200002F0200002F0200009C
:1000A0002F0200002F0200002F0200002F0200008C
:1000B0002F0200002F0200000000000000000000DE
:1000C0002F0200002F0200002F0200002F0200006C
:1000D0002F0200002F0200002F020000000000008D
:1000E0000000000000000000000000000000000010
:1000F0000000000000000000000000000000000000
:1001000000000000000000000000000000000000EF
:1001100000000000000000000000000000000000DF
:1001200000000000000000000000000000000000CF
:1001300000000000000000000000000000000000BF
:1001400000000000000000000000000000000000AF
:10015000000000000000000000000000000000009F
:10016000000000000000000000000000000000008F
:10017000000000000000000000000000000000007F
:10018000000000000000000000000000000000006F
:10019000000000000000000000000000000000005F
:1001A000000000000000000000000000000000004F
:1001B000000000000000000000000000000000003F
:1001C000000000000000000000000000000000002F
:1001D000000000000000000000000000000000001F
:1001E000000000000000000000000000000000000F
:1001F00000000000000000000000000000000000FF
:10020000DFF80CD000F03CF800480047ED0B000090
:10021000685700200648804706480047FEE7FEE78B
:10022000FEE7FEE7FEE7FEE7FEE7FEE7FEE7FEE7A6
:10023000A50200000102000040EA01039B0703D071
:1002400009E008C9121F08C0042AFAD203E011F815
:10025000013B00F8013B521EF9D27047D2B201E0D7
:1002600000F8012B491EFBD270470022F6E710B5BB
:1002700013460A4604461946FFF7F0FF204610BD14
:10028000064C074D06E0E06840F0010394E80700E3
:1002900098471034AC42F6D3FFF7B6FFE00C0000ED
:1002A000000D0000F0B5B5480023021D0178101DB7
:1002B00001254FF0805406290BD11678360708D156
:1002C0000678C6F30316032E06D0042E04D0052E9E
:1002D00002D0062907D00EE0B4F82463A84FC6F375
:1002E00004263E6002E01678360704D10678C6F38D
:1002F0000316032E02D0062904D00FE0A24FA14E10
:100300007E670EE01678360708D10678C6F3031626
:10031000032E06D0042E04D0052E02D0062907D0C5
:100320000EE0D4F84462994FC6F342363E6002E0D4
:100330001678360704D10678C6F30316032E02D0CA
:10034000062906D011E0924E376827F08077376093
:100350000EE01678360708D10678C6F30316032E8A
:1003600006D0042E04D0052E02D006290AD011E0B2
:100370004FF08046C6F80C31C6F81031834E361F58
:10038000336002E01678360704D10678C6F3031608
:10039000032E02D0062905D00CE07C4F03266437DB
:1003A0003E600AE01678360704D10678C6F30316D5
:1003B000032E02D006290DD014E0764F05263E60AC
:1003C000744E78363560734E083633603F263F1DD5
:1003D0003E6002E01678360704D10678C6F30316AD
:1003E000052E02D0062957D062E06B4E36686B4F5F
:1003F0003E60694E361D36683F1D3E60664E0836CB
:1004000036683F1D3E60644E0C3636683F1D3E60C8
:10041000614E103636683F1D3E605F4E14363668BA
:100420003F1D3E605C4E183636685C4F20373E609C
:10043000594E1C3636683F1D3E60574E2036366892
:100440003F1D3E60544E243636683F1D3E60524E7E
:10045000283636683F1D3E604F4E2C3636683F1DAD
:100460003E604D4E303636684C4F40373E604A4E07
:10047000343636683F1D3E60474E383636683F1D7D
:100480003E60454E3C3636683F1D3E60424E40362B
:1004900036683F1D3E6002E01678360708D10678C0
:1004A000C6F30316032E06D0042E04D0052E02D068
:1004B000062907D019E0D4F85812394A01F04F0143
:1004C000116002E0117809070FD10078C0F3031022
:1004D000032803D0042801D0052806D1314801683B
:1004E000C90702D06FF001010160D4F8300106287D
:1004F00008D1D4F83401062804D12B48016841F40E
:100500008061016022487438016841F47001016023
:10051000BFF34F8FBFF36F8F4FF01021D1F8000260
:10052000002803DBD1F80402002822DA1F4A1560F4
:100530001F480468002CFCD01524C1F8004205684F
:10054000002DFCD0C1F8044201680029FCD01360E2
:1005500001680029FCD0BFF34F8F0D48F0380168C7
:10056000144A01F4E06111430160BFF34F8F00BFF3
:10057000FDE7124910480860F0BD0000E00F00F0F0
:10058000403501400DF0ADBA00C007403C050040C9
:10059000FCED00E0105600400404001020C50040AF
:1005A000E40E0040000400403C17004004E5014018
:1005B00000E401400400FA050090D0030000002090
:1005C00002E008C8121F08C1002AFAD1704770471C
:1005D000002001E001C1121F002AFBD1704700007A
:1005E0002DE9FC410646C0074FF000050ED0104F24
:1005F00000240122385D009500231146019500F08A
:100600002BFB641C042CF4D300F01CF8B0070DD5B0
:10061000074E0024361D0022305D0323009511464D
:10062000019500F019FB641C042CF4D3BDE8FC8197
:10063000D80C00000249085C012100F01FBB00003B
:10064000D80C000010B500242046FFF7F3FF641C0F
:10065000042CF9D310BD00002DE9F04F0746F0A09F
:100660008846D0E9001095B01446CDE910104FF03F
:10067000000A4022ECA16846FFF7DEFD2E2600208E
:10068000F94B0125C11700EB517208EBE20122F092
:100690000702821A0978C2F1070205FA02F2114034
:1006A00000D0012143F82010401C6928EADB6920B2
:1006B000C11700EB517107EBE10221F00701411A6C
:1006C0001278C1F1070105FA01F10A4201D00121B6
:1006D00000E0002143F82010401C7F28E8DBE34ABB
:1006E0000120EB460DF1400E002142F8201000BF22
:1006F00053F821707FB100FB01F74FF07F0C97FB9F
:10070000FCF80CFB187C1EF80C7052F820C087EA2D
:100710000C0742F82070491C7F29E9DB52F82010B1
:1007200009B14FF0010A1BF8011042F82010401CDB
:10073000B042D9DDBAF1000F6FD0CD4FCB490020C8
:1007400038604968CB4A79600121D5651060451E43
:1007500042F8215002EB810C491C9146CCF85C0018
:10076000B142F5DBC44900200860486001F5FE7124
:10077000C1E90050BE49401C51F820101491491C99
:1007800002D0411EBA4D1EE0BB49C0EBC00707EBCB
:10079000001751F8205001EB8001D8464D60002130
:1007A00009EB87020BE000BF52F8217002EB810CCD
:1007B000CCF85C7018F8077042F82170491C8D4223
:1007C000F2DA86E0491E55F82120521C22D0002979
:1007D00010DDAA4F0A46521E55F822C0BCF1FF3F59
:1007E00006D057F821C057F82280C44500DA1146D8
:1007F000002AF0DCA04A52F8207052F82120BA46B4
:100800000244521A974209DD9B4A02EB8002C2F869
:1008100004A007E00029D5DCECE700E1964F07EBE8
:1008200080077A60C0EBC002002702EB0018BC46CC
:1008300009EB880202EB87087F1CC8F85CC0B7424E
:10084000F8DBC1EBC10C0CEB011809EB880CCDF8FF
:100850004CC0DFF824C200275CF821C0CDF848C0A6
:1008600020E0139D55F82750B5F1FF3F19D0DFF870
:1008700000C2DDF850805CF821C0A8EB0C0C0CF134
:100880007F0CAC447F259CFBF5F805FB18CC1EF8CB
:100890000C5007EB000CACEB010C02EB8C0CCCF811
:1008A0005C507F1C129DBD42DBDA00215F460EE0EA
:1008B00002EB810552F821C0D5F85C8088EA0C086B
:1008C000C5F85C8017F80C5042F82150491C8A4545
:1008D000EEDA694901EB80014A686849851A01EB43
:1008E0008001B0424D6040DADFF8808108EB800182
:1008F0004D68691C06D05E491EF8055001EB800169
:100900004D6004E05A4D002105EB8005696001212E
:1009100022E0471A08EB87056D686F1C1BD0C0EBFF
:10092000C00707EB001C09EB8C0707EB8107FF6D85
:100930008FB11BF807702F447F2597FBF5FC05FB53
:100940001C774B4D1EF8077005EB8005D5F804C0E9
:1009500087EA0C076F60491C8A42DADA444901EBE6
:1009600080014F681BF807504D60B04202DA172A29
:100970007FF700AF4049401C51F8201017294EDC8A
:10098000C0EBC00707EB001000225E4609EB8005B4
:1009900006E000BF55F82200305C45F82200521CEA
:1009A0009142F7DADFF8C0900120A9F15C0904E078
:1009B00055F8206049F82060401C8142F8DADFF8E1
:1009C000A8B000250122ABF1B80B012630464FF04C
:1009D0007F0A10E059F82070B7F1FF3F0AD007EB0B
:1009E000000C9CFBFAF80AFB18C749F820701EF8A7
:1009F00007707E40401C8142ECDA46B91B48C2F1C8
:100A00007F06B83040F825204BF825606D1C521C3D
:100A10007F2ADADDA9423ED100205A4639E03AE089
:100A20000102040810204080FF000107020E083870
:100A3000033F0F1F095A3915041C404310702061F1
:100A40000A6C5B463A26162F05361D13415F442D6E
:100A5000112B7173214D62750B576D235C4A474F03
:100A60003B68276417523077683500209C3300209C
:100A7000A82D002004000020A42F0020A031002079
:100A800052F82050401C53F8256086F0010643F8C8
:100A900025608142F4DC69220020054625540021AE
:100AA0007F2A0BDA13F82260C1F10707BE40275CEA
:100AB000491C3E43521C26540829F1DB401C0228E5
:100AC000ECDB15B0BDE8F08FF0B5D9B00C460546AB
:100AD00016463A2127A8FFF7C8FB302242491BA837
:100AE000FFF7AAFB002001210DF1D80E05EBD00283
:100AF00000F007031278C3F1070301FA03F31A4069
:100B000000D001220EF80020401C7F28EED3287868
:100B10003070687870700020064669460E54401C9C
:100B20006928FBDB5FF015029DF868001EF80230B3
:100B300043404FF0680017D00DF16C0C1CF80070AA
:100B4000002F01EB000717F8017C00D05F400F5425
:100B5000401EF3D19DF86C0010B10BB1012000E0F4
:100B600000208DF8000007E00B1813F8013C0B542F
:100B7000401EF9D18DF80060521ED5D500221046D6
:100B8000002326542F2A04D3235C23F0010323548B
:100B90000DE08F5CC3F1070C07FA0CF714F800C0E6
:100BA000521C47EA0C075B1C2754082BEAD3401C55
:100BB0000228E5DB2078A978484020706078E97841
:100BC00048406070A07829794840A070E078697941
:100BD0004840E0702079A979484020716079E9792E
:100BE0004840607159B0F0BDA80C0000E0B0012091
:100BF000FFF7F6FC40AA20A96846FFF765FF40AA68
:100C000020A96846FFF728FD4FF4FA76304600F039
:100C100013F84FF0A0444FF4805700BFD4F80405F8
:100C200027EA0005C4F8085500F48050C4F80C0504
:100C3000304600F001F8F1E72DE9F041040007D05B
:100C4000044E4FF47A47751C3846A847641EFAD103
:100C5000BDE8F081A00C000070B541EA4201DDE979
:100C600004564FF0A04441EA830141EA052104EB18
:100C7000800041EA0641C0F8001770BD01224FF024
:100C8000A043824011B1C3F808257047C3F80C2572
:100C9000704700000000000000000000000000009D
:100CA0000338FDD870470000010100010001000079
:100CB0000101000101010000010001010100010129
:100CC000010100010000000001010000010000011D
:100CD0000100010100000101111213140D0E0F108B
:100CE000000D00000000002004000000C00500000E
:100CF000040D00000400002064570000D00500002F
:040D00000090D0038C
:0400000500000201F4
:00000001FF
