:020000040000FA
:10000000C8310020150200001D0200001F02000080
:100010002102000023020000250200000000000071
:1000200000000000000000000000000027020000A7
:1000300029020000000000002B0200002D02000039
:100040002F0200002F0200002F0200002F020000EC
:100050002F0200002F0200002F0200002F020000DC
:100060002F0200002F0200002F0200002F020000CC
:100070002F0200002F0200002F0200002F020000BC
:100080002F0200002F0200002F0200002F020000AC
:100090002F0200002F0200002F0200002F0200009C
:1000A0002F0200002F0200002F0200002F0200008C
:1000B0002F0200002F0200000000000000000000DE
:1000C0002F0200002F0200002F0200002F0200006C
:1000D0002F0200002F0200002F020000000000008D
:1000E0000000000000000000000000000000000010
:1000F0000000000000000000000000000000000000
:1001000000000000000000000000000000000000EF
:1001100000000000000000000000000000000000DF
:1001200000000000000000000000000000000000CF
:1001300000000000000000000000000000000000BF
:1001400000000000000000000000000000000000AF
:10015000000000000000000000000000000000009F
:10016000000000000000000000000000000000008F
:10017000000000000000000000000000000000007F
:10018000000000000000000000000000000000006F
:10019000000000000000000000000000000000005F
:1001A000000000000000000000000000000000004F
:1001B000000000000000000000000000000000003F
:1001C000000000000000000000000000000000002F
:1001D000000000000000000000000000000000001F
:1001E000000000000000000000000000000000000F
:1001F00000000000000000000000000000000000FF
:10020000DFF80CD000F02AF800480047E50B0000AA
:10021000C83100200648804706480047FEE7FEE751
:10022000FEE7FEE7FEE7FEE7FEE7FEE7FEE7FEE7A6
:10023000810200000102000040EA01039B0703D095
:1002400009E008C9121F08C0042AFAD203E011F815
:10025000013B00F8013B521EF9D27047064C074D96
:1002600006E0E06840F0010394E807009847103486
:10027000AC42F6D3FFF7C8FFA00C0000C00C000092
:10028000F0B5B5480023021D0178101D01254FF07F
:10029000805406290BD11678360708D10678C6F3A4
:1002A0000316032E06D0042E04D0052E02D00629F4
:1002B00007D00EE0B4F82463A84FC6F304263E60CE
:1002C00002E01678360704D10678C6F30316032E2B
:1002D00002D0062904D00FE0A24FA14E7E670EE0A7
:1002E0001678360708D10678C6F30316032E06D013
:1002F000042E04D0052E02D0062907D00EE0D4F833
:100300004462994FC6F342363E6002E016783607E3
:1003100004D10678C6F30316032E02D0062906D0B0
:1003200011E0924E376827F0807737600EE016783C
:10033000360708D10678C6F30316032E06D0042E1E
:1003400004D0052E02D006290AD011E04FF08046D5
:10035000C6F80C31C6F81031834E361F336002E008
:100360001678360704D10678C6F30316032E02D09A
:10037000062905D00CE07C4F032664373E600AE076
:100380001678360704D10678C6F30316032E02D07A
:1003900006290DD014E0764F05263E60744E78365F
:1003A0003560734E083633603F263F1D3E6002E0E5
:1003B0001678360704D10678C6F30316052E02D048
:1003C000062957D062E06B4E36686B4F3E60694E2F
:1003D000361D36683F1D3E60664E083636683F1D46
:1003E0003E60644E0C3636683F1D3E60614E1036EE
:1003F00036683F1D3E605F4E143636683F1D3E60D6
:100400005C4E183636685C4F20373E60594E1C36BD
:1004100036683F1D3E60574E203636683F1D3E60B1
:10042000544E243636683F1D3E60524E283636689C
:100430003F1D3E604F4E2C3636683F1D3E604D4E90
:10044000303636684C4F40373E604A4E3436366858
:100450003F1D3E60474E383636683F1D3E60454E74
:100460003C3636683F1D3E60424E403636683F1D82
:100470003E6002E01678360708D10678C6F3031608
:10048000032E06D0042E04D0052E02D0062907D054
:1004900019E0D4F85812394A01F04F01116002E016
:1004A000117809070FD10078C0F30310032803D097
:1004B000042801D0052806D131480168C90702D0B7
:1004C0006FF001010160D4F83001062808D1D4F89A
:1004D0003401062804D12B48016841F48061016091
:1004E00022487438016841F470010160BFF34F8FF6
:1004F000BFF36F8F4FF01021D1F80002002803DB0B
:10050000D1F80402002822DA1F4A15601F48046847
:10051000002CFCD01524C1F800420568002DFCD049
:10052000C1F8044201680029FCD013600168002969
:10053000FCD0BFF34F8F0D48F0380168144A01F426
:10054000E06111430160BFF34F8F00BFFDE7124927
:1005500010480860F0BD0000E00F00F04035014099
:100560000DF0ADBA00C007403C050040FCED00E0D6
:10057000105600400404001020C50040E40E004066
:10058000000400403C17004004E5014000E4014045
:100590000400FA050090D0030000002002E008C823
:1005A000121F08C1002AFAD170477047002001E0ED
:1005B00001C1121F002AFBD1704700002DE9FC4148
:1005C0000646C0074FF000050ED0104F0024012250
:1005D000385D009500231146019500F03BFB641C3B
:1005E000042CF4D300F01CF8B0070DD5074E0024FE
:1005F000361D0022305D032300951146019500F061
:1006000029FB641C042CF4D3BDE8FC81960C00008B
:100610000249085C012100F02FBB0000960C00008D
:1006200010B500242046FFF7F3FF641C042CF9D317
:1006300010BD00002DE9F04F0746FDA08846D0E927
:10064000001095B01446CDE90E104FF0000A20229C
:10065000F9A104A8FFF7F0FD16260020FE4B0125A6
:10066000C11700EB517208EBE20122F00702821A77
:100670000978C2F1070205FA02F2114000D0012107
:1006800043F82010401C2F28EADB2F20C11700EB75
:10069000517107EBE10221F00701411A1278C1F113
:1006A000070105FA01F10A4201D0012100E0002111
:1006B00043F82010401C3F28E8DBE84A01200DF1F8
:1006C000100B0DF1380E002142F8201053F8217064
:1006D0007FB100FB01F74FF03F0C97FBFCF80CFBE0
:1006E000187C1EF80C7052F820C087EA0C0742F8FC
:1006F0002070491C3F29E9DB52F8201009B14FF066
:10070000010A1BF8011042F82010401CB042DADD4B
:10071000BAF1000F71D0D24FD0490020386049683B
:10072000A7F6CC427960556301211060451E42F85E
:10073000215002EB810C491C9146CCF83400B142A7
:10074000F5DBC7490020FC3108604860FC31C1E995
:100750000050C349401C51F820101291491C02D08E
:10076000411EBF4D1FE0BE4900EB8007FC3107EB87
:10077000C00751F8205001EB8001D8464D600021A0
:1007800009EB87020BE000BF52F8217002EB810CED
:10079000CCF8347018F8077042F82170491C8D426B
:1007A000F2DA8CE0491E55F82120521C26D000298F
:1007B00011DDAA4F0A46FC3F521E55F822C0BCF17B
:1007C000FF3F06D057F821C057F82280C44500DA11
:1007D0001146002AF0DCA24AFC3252F8207052F88E
:1007E0002120BA460244521A97420ADD9C4AFC3242
:1007F00002EB8002C2F804A008E014E10029D1DC79
:10080000E9E7974FFC3707EB80077A6000EB80023F
:10081000002702EBC008BC4609EB880202EB870800
:100820007F1CC8F834C0B742F8DB01EB810C0CEB3D
:10083000C10809EB880CCDF808C0DFF824C20027F6
:100840000CF1FC0C5CF821C0CDF844C020E0029D06
:1008500055F82750B5F1FF3F19D0DFF804C2DDF895
:1008600048805CF821C0A8EB0C0C0CF13F0CAC44A8
:100870003F259CFBF5F805FB18CC1EF80C5007EB48
:10088000000CACEB010C02EB8C0CCCF834507F1C50
:10089000119DBD42DBDA00215F460EE002EB8105CF
:1008A00052F821C0D5F8348088EA0C08C5F83480A5
:1008B00017F80C5042F82150491C8A45EEDA684975
:1008C000FC3101EB80014A686449851AFC3901EB6F
:1008D0008001B0424D6040DADFF8808108EB800192
:1008E0004D68691C06D05E491EF8055001EB800179
:1008F0004D6004E05A4D002105EB8005696001213F
:1009000022E0471A08EB87056D686F1C1BD000EBCF
:10091000800707EBC00C09EB8C0707EB81077F6BA7
:100920008FB11BF807702F443F2597FBF5FC05FBA3
:100930001C774B4D1EF8077005EB8005D5F804C0F9
:1009400087EA0C076F60491C8A42DADA444901EBF6
:1009500080014F681BF807504D60B04202DA0B2A45
:100960007FF7F7AE3E49401CFC3151F820100B29AF
:1009700059DC00EB800707EBC00000225E4609EB64
:10098000800505E055F82200305C45F82200521C35
:100990009142F7DADFF8C0900120A9F1340904E0B0
:1009A00055F8206049F82060401C8142F8DADFF8F1
:1009B000A8B000250122ABF1680B012630464FF0AC
:1009C0003F0A10E059F82070B7F1FF3F0AD007EB5B
:1009D000000C9CFBFAF80AFB18C749F820701EF8B7
:1009E00007707E40401C8142ECDA46B91B48C2F1D8
:1009F0003F06683040F825204BF825606D1C521CDE
:100A00003F2ADADDA9420ED100205A4609E000BF94
:100A100052F82050401C53F8256086F0010643F838
:100A200025608142F4DC2F2200200546255419E080
:100A30000102040810204080FF000106020C071A82
:100A400003200D2308301B12041821100E34243605
:100A5000092D31261C291338C8100020C40F00208E
:100A6000D00C002000213F2A0BDA13F82260C1F1DC
:100A70000707BE40275C491C3E43521C26540829E8
:100A8000F1DB401C0228D1DB15B0BDE8F08F00007F
:100A9000F0B5AFB016460C460546382243A10EA865
:100AA000FFF7CAFB002001210DF17C0E05EBD002FF
:100AB00000F007031278C3F1070301FA03F31A40A9
:100AC00000D001220EF80020401C3F28EED32878E9
:100AD00030706878032141EA90107070002006465B
:100AE00069460E54401C3528FBDB09229DF8340072
:100AF0001EF8023043404FF0340017D00DF1380C8F
:100B00001CF80070002F01EB000717F8017C00D0E3
:100B10005F400F54401EF3D19DF8380010B10BB167
:100B2000012000E000208DF8000007E00B1813F80A
:100B3000013C0B54401EF9D18DF80060521ED5D5F2
:100B400000221046002326542F2A04D3235C23F0CE
:100B5000010323540DE08F5CC3F1070C07FA0CF777
:100B600014F800C0521C47EA0C075B1C2754082BE2
:100B7000EAD3401C0228E5DB2078E9784840207061
:100B80006078297948406070A07869794840A07001
:100B9000E078A9794840E0702079E97948402071EF
:100BA0006079297A484060712FB0F0BD01000101E1
:100BB000000101000000000001000100010001012E
:100BC000010001000100010100010000000101001D
:100BD000000100000100000101000100010101000D
:100BE00000010000B0B00120FFF7E8FC20AC10AD20
:100BF0006E4601A8A91CA21CFFF74AFFA21CA91C53
:100C0000301DFFF717FD4FF4FA76304600F012F86A
:100C10004FF0A0444FF48057D4F8040527EA0005AC
:100C2000C4F8085500F48050C4F80C05304600F0B4
:100C300001F8F1E72DE9F041040007D0044E4FF42C
:100C40007A47751C3846A847641EFAD1BDE8F08182
:100C5000900C000070B541EA4201DDE904564FF006
:100C6000A04441EA830141EA052104EB800041EA06
:100C70000641C0F8001770BD01224FF0A04382402A
:100C800011B1C3F808257047C3F80C257047000060
:100C90000338FDD87047111213140D0E0F10000009
:100CA000C00C000000000020040000009C050000B3
:100CB000C40C000004000020C4310000AC0500009A
:040CC0000090D003CD
:0400000500000201F4
:00000001FF
