:020000040002F8
:10600000683D0020DD630200E5630200E7630200F3
:10601000E9630200EB630200ED6302000000000090
:10602000000000000000000000000000EF6302001C
:10603000F163020000000000F3630200F563020058
:1060400035680200F76302007D6E0200F76302000C
:10605000F7630200F7630200A9650200F76302001C
:10606000F7630200F7630200F7630200F7630200C0
:10607000F7630200F7630200F7630200F7630200B0
:10608000F763020089680200F7630200F763020009
:10609000C36B0200F7630200CB6B0200F7630200E0
:1060A000F7630200F7630200F7630200F763020080
:1060B000F7630200F7630200000000000000000028
:1060C000F7630200F7630200F7630200F763020060
:1060D000F7630200F7630200F763020000000000AC
:1060E00000000000000000000000000000000000B0
:1060F00000000000000000000000000000000000A0
:10610000000000000000000000000000000000008F
:10611000000000000000000000000000000000007F
:10612000000000000000000000000000000000006F
:10613000000000000000000000000000000000005F
:10614000000000000000000000000000000000004F
:10615000000000000000000000000000000000003F
:10616000000000000000000000000000000000002F
:10617000000000000000000000000000000000001F
:10618000000000000000000000000000000000000F
:1061900000000000000000000000000000000000FF
:1061A00000000000000000000000000000000000EF
:1061B00000000000000000000000000000000000DF
:1061C00000000000000000000000000000000000CF
:1061D00000000000000000000000000000000000BF
:1061E00000000000000000000000000000000000AF
:1061F000000000000000000000000000000000009F
:10620000DFF80CD000F092F90048004749BC0200CA
:10621000683D002000B583B002900091019244F2E5
:10622000010071466A4601F0DFF903B000BD0000CD
:1062300030B450E8012F93B2C48923448489A34227
:1062400028BF1B1B0489A34202BFBFF32F8F00206E
:1062500007E0C3EA020340E80134002CE9D14FF023
:1062600001000A6030BC704750E8012FC2EA0242C8
:1062700040E801210029F7D1704730B450E8022FDF
:106280001FFAA2F3C488A34202BFBFF32F8F0020DE
:106290000DE0C48923448489A34228BF1B1BC2EAA2
:1062A000034340E80234002CE8D14FF001000A60BB
:1062B00030BC704750E8022FC2EA224240E8022177
:1062C0000029F7D17047034653E8022FD988B2EB73
:1062D000324F4FF0000017BF92B241EA014142EA4B
:1062E000014104E05A68B2EB324F08BF012043E895
:1062F0000212002AE8D1704730B4044654E8000F77
:106300000D4644E80053002BF8D1156030BC7047AF
:1063100030B4044654E8000F40EA010544E8005355
:10632000002BF7D1156030BC704730B4044654E8F8
:10633000000F00EA010544E80053002BF7D1156077
:1063400030BC704730B4044654E8000F80EA0105C1
:1063500044E80053002BF7D1156030BC704730B4CF
:10636000044654E8000F00EB010544E80053002BFD
:10637000F7D1156030BC704730B4044654E8000FC4
:10638000A0EB010544E80053002BF7D1156030BCA9
:10639000704770B404464FF0000054E8006F0D6879
:1063A000AE4207BF44E80023012044E800630E60CA
:1063B000002B1CBF0020F0E770BC704730B40446CF
:1063C00054E8000F88422CBF451A054644E80053A4
:1063D000002BF5D1156030BC70470000064880479F
:1063E00006480047FEE7FEE7FEE7FEE7FEE7FEE7BA
:1063F000FEE7FEE7FEE7FEE7E56B02000162020052
:106400002DE9F05F0546002092469B4688460646E9
:10641000814640241BE0284641464746224600F07C
:1064200074F853465A46C01A914110D31146184683
:10643000224600F016F82D1A67EB01084F46224657
:106440000120002100F00DF817EB00094E41201E3D
:10645000A4F10104DFDC484631462A464346BDE844
:10646000F09F202A04DB203A00FA02F10020704756
:106470009140C2F1200320FA03F319439040704782
:10648000004870475431030040EA01039B0703D0E2
:1064900009E008C9121F08C0042AFAD203E011F863
:1064A000013B00F8013B521EF9D27047D2B201E025
:1064B00000F8012B491EFBD270470022F6E710B509
:1064C00013460A4604461946FFF7F0FF204610BD62
:1064D000421C10F8011B0029FBD1801A704730B50F
:1064E00004460020034600E05B1C934203D2E05CBC
:1064F000CD5C401BF8D030BD034611F8012B00F8ED
:10650000012B002AF9D118467047202A04DB203AD3
:1065100021FA02F00021704721FA02F3D040C2F1C3
:10652000200291400843194670470000064C074D71
:1065300006E0E06840F0010394E807009847103453
:10654000AC42F6D3FFF760FEB8390300D839030038
:1065500070B58C1810F8015B15F0070301D110F825
:10656000013B2A1106D110F8012B03E010F8016B52
:1065700001F8016B5B1EF9D12B0705D40023521ED5
:106580000DD401F8013BFAE710F8013BCB1A921C3D
:1065900003E013F8015B01F8015B521EF9D5A1423B
:1065A000D8D3002070BD00002DE9F04F89B000273E
:1065B000002008904FF4807007900126002412E01C
:1065C000079806F0BBFC40B100BF7B480068304034
:1065D00018B1079806F0A4FC374376000798001D11
:1065E00080B20790641C082CEAD34FF4BE7006F00A
:1065F000A5FC50B14FF4BE7006F092FC47F0004786
:1066000008AA0121002006F071FCF8B200B30126AF
:1066100000241BE006EA0700B0B100BF674850F84D
:106620002400C0F30420804600BF644850F82400D2
:10663000C0F301408146204602F0A4FD054615B195
:1066400049464046A84700BF7600641C082CE1D3A9
:1066500007F0004000287DD000200690059000251E
:1066600005E04FF0FF3004A941F825006D1C002D16
:10667000F7D000BF0020069000245FE05048005D86
:106680000390039820F0C0094D480057401C002893
:1066900053D004A9484605F01EFE00284DD00398AB
:1066A0004FEA901A484602F0B5FD804602F06AFDB6
:1066B0000290029810B9BAF1030F3DD1BAF1030F5D
:1066C00003D105A9484605F011FE00BF00BF4FF0F9
:1066D000A041084600F5E06151F82910C1F30148D6
:1066E00000BF08A9484605F0F6FD8346BBF1000F40
:1066F00002D0B8F1020F05D0BBF1000F1BD1B8F1E9
:10670000030F18D1BAF1030F0FD1B8F1020F01D165
:10671000032000E0022001904846019906F08EFB1C
:106720000698401CC0B2069000BF029818B15146AE
:106730004846029A904700BF00BF641C042C9DD3BA
:10674000069888B34FF0010803AA0121002006F043
:10675000CDFB00E02DE000250BE003A850F825005C
:1067600008A951F82510884202D04FF0000802E035
:106770006D1C002DF1D000BFB8F1000F02D0002039
:10678000069010E000250CE003A850F8250008A9A9
:1067900041F8250005A850F8250004A941F8250076
:1067A0006D1C002DF0D000BF069800287FF462AF6A
:1067B00000BF09B0BDE8F08F0463004010650040E1
:1067C000782A002000F01F0201219140024A43096B
:1067D00042F823107047000080E200E000F01F0242
:1067E000012191404209920002F1E022C2F8001119
:1067F0007047000000F01F0201219140024A430946
:1068000042F823107047000000E200E010B50028B5
:1068100007DA4A07140E054A00F00F031B1FD45471
:1068200003E04A07130E024A135410BD18ED00E0AE
:1068300000E400E010B54FF4807005F064FE80B114
:106840004FF4807005F068FE012005F06FFE0D48E2
:10685000407930B901200B49487108460168002091
:1068600088474FF4827005F04EFE50B14FF48270AD
:1068700005F052FE022005F059FE02480168012091
:10688000884710BDBC22002010B5002009490860CF
:1068900000210948C0F84411C0F84811C0F84C1153
:1068A00000200549C1F8000102493C3908600BF09D
:1068B00071FA10BD4011014000100140F8B50446C6
:1068C0000D46164600BF0B48007808B900F0DEFA06
:1068D00000BF00200090684601F02CF8324629469F
:1068E000204600F009F807469DF8000001F028F85E
:1068F0003846F8BDDC3200202DE9F04707468846CF
:106900001646C24607EB47011B4800EBC109D9F800
:10691000140020B1012811D0022826D11EE04846DB
:1069200000F0ECFA0546B54201D2002405E03446F9
:1069300032465146484600F036FC18E0484600F022
:10694000DDFA0546B54201D2284600E0304604464D
:1069500022465146484600F026FC08E032465146A1
:10696000484600F0E7FB044601E0002400BF00BFFA
:106970002046BDE8F0870000F432002070B50546DF
:106980000C462046FFF7A4FD06463246214628461F
:10699000FFF794FF70BD0FB438B5044606A8009009
:1069A0006A462046059900F007F805460020009049
:1069B000284638BC5DF814FB2DE9F04F99B08246AB
:1069C0000D46144603A81490402015900020169000
:1069D000CDF860A0179000BF2E786D1C06B9DDE0E1
:1069E000252E79D100274FF0010900BF2E78232EE4
:1069F00012D02B2E0CD02D2E02D0302E10D103E031
:106A000047F001076D1C0EE047F002076D1C0AE01D
:106A100047F004076D1C06E047F008076D1C02E014
:106A20004FF0000900BF00BFB9F1000FDED14FF0F9
:106A3000000800BF2E78302E01DB392E00DD07E084
:106A40006D1CA6F1300008EB880100EB4108F1E76E
:106A500000BF002013902E782E2E12D16D1C00BF87
:106A60002E78302E01DB392E00DD09E06D1CA6F1F9
:106A70003000139901EB810100EB41001390EFE727
:106A800000BF2E7800BF6C2E01D0682E02D16D1C85
:106A90002E7800E000E0F6E700BF702E5DD008DC45
:106AA000252E6AD0582E35D0632E09D0642E69D198
:106AB00013E0732E3CD0752E1DD0782E62D128E0C5
:106AC0002168081D2060D1F8009009F0FF0B59469D
:106AD00014A800F00DFB56E058E02168081D206066
:106AE000D1F80090CDE900870A22494614A8139BEB
:106AF00000F012FA47E02168081D2060D1F80090EC
:106B0000CDE900870A22494614A8139B00F07AFABF
:106B100039E000BF2168081D2060D1F80090CDE960
:106B200000871022494614A8139B00F06BFA2AE054
:106B30002168081D2060D1F800B000BF9BF80060FC
:106B40000BF1010B06B906E0314614A800F0D0FAAB
:106B500017980028F2DA00BF15E02168081D2060B0
:106B6000D1F80090002008210B461022CDE900103A
:106B7000494614A800F046FA05E0252114A800F0C3
:106B8000B7FA00E000BF00BF6D1C03E0314614A857
:106B900000F0AEFA17980028BFF61EAF00BF179896
:106BA00000280ADD169820B103A95046169AFFF76F
:106BB00085FEDDE9161008441790179819B0BDE856
:106BC000F08F10B50AF0F0FF10BD10B507F0E8F82F
:106BD00010BD000001480249086070470090D003D2
:106BE000E823002010B502F015FF28B19248008874
:106BF000C0F304209149086002F060FF10B1904892
:106C00009049486702F082FF30B18B48E038006855
:106C1000C0F342308C49086002F0A2FF28B18B48D3
:106C2000006820F080708949086002F0B1FF48B127
:106C30000020874908604FF08041C1F81001824967
:106C4000091F086002F0CEFF18B103207E496431AD
:106C5000086002F0DFFF68B105207E49086001206E
:106C60007C497831086000207A49083108603F206B
:106C7000091F086002F0E6FF002855D06E48E0309A
:106C80000068754908606C48E4300068091D0860B8
:106C90006948E8300068091D08606748EC30006802
:106CA000091D08606448F0300068091D08606248EA
:106CB000F4300068091D08605F48F83000686649D4
:106CC000203108605C48FC300068091D086063489A
:106CD0000068091D08606148001D0068091D086002
:106CE0005E4808300068091D08605C480C30006888
:106CF000091D086059481030006857494031086044
:106D0000564814300068091D08605448183000685F
:106D1000091D086051481C300068091D08604F4873
:106D200020300068091D086002F04AFE30B1424878
:106D3000CC38006800F04F004949086002F094FE2A
:106D400040B14848006800F0010018B16FF0010040
:106D50004449086002F0CAFE28B14348006840F484
:106D600080604149086039487438006840F4700018
:106D700036497439086000BF00BF00BFBFF34F8FB2
:106D800000BF00BF00BF00BF00BF00BFBFF36F8FD9
:106D900000BF00BF00BF3548006800F0004028B9C0
:106DA0003248001D006800F00040E8B3012030497F
:106DB000086000BF2F4800680028FBD015202B4931
:106DC000086000BF2B4800680028FBD01521274829
:106DD000001D016000BF274800680028FBD000208C
:106DE0002349086000BF234800680028FBD000BF8B
:106DF00000BF00BF00BF00BFBFF34F8F00BF00BF89
:106E000000BF1248F038006800F4E0601A490843F7
:106E1000001D0E49F039086000BF00BF00BFBFF37E
:106E20004F8F00BF00BF00E003E000BF00BF00BF06
:106E3000FDE7FFF7CFFE10BD2403001040350140F1
:106E40000DF0ADBA00C007403C050040FCED00E08D
:106E50000C0100401056004020C5004024040010E2
:106E6000E40E0040000400403C17004000120010F7
:106E700004E5014000E401400000FA0510B50249B4
:106E80000868804710BD0000C422002010B5124CD5
:106E900002202061606111A0A0611349E1614FF4FB
:106EA000007121620021A1626162E1620BA0A06415
:106EB0000E49E164102121650021A1656165E1654C
:106EC0000BA1E01DFFF718FB0AA12046FFF714FBFA
:106ED0002020A07110BD0000DC3200205465726DCE
:106EE000696E616C000000005433002054350020AE
:106EF00052545400534547474552000010B50146CF
:106F00000A69CB689A4204D88C68641EE41AA018F7
:106F100001E0D41A601E10BD2DE9FC5F06460F4645
:106F200092469846DDE90C45002F01DA784200E0F0
:106F3000384683464FF0010903E09BFBFAFB09F159
:106F40000109D345F9DAC84500D9C14634B1002F4B
:106F500003DB05F00400042800D1641E05F00200E4
:106F600010B1B8F1000F11D005F0010070B96CB18B
:106F700008E0641E2021304600F0BAF8F0680028CE
:106F800000DA02E00CB1A145F3D300BFF06800289D
:106F900036DB002F05DA7F422D21304600F0A8F8BD
:106FA00007E005F00400042803D12B21304600F04F
:106FB0009FF8F068002823DB05F00200022814D1B6
:106FC00005F0010088B9B8F1000F0ED16CB108E0EE
:106FD000641E3021304600F08BF8F068002800DA9B
:106FE00002E00CB1A145F3D300BFF068002807DB35
:106FF0004346524639463046CDE9004500F002F896
:10700000BDE8FC9F2DE9FC5F8046894615461E467B
:107010000C9CCDF804900127BB4605E00198B0FB1D
:10702000F5F001900BF1010B0198A842F6D25E45F4
:1070300000D9B3460D9800F00100D0B9CCB10D983D
:1070400000F00200022803D116B93020009001E0C0
:107050002020009009E0641E4046009900F048F8A6
:10706000D8F80C00002800DA02E00CB1A345F2D3F6
:1070700000BFD8F80C00002835DB09E0012E01D94B
:10708000761E04E0B9FBF7FAAA4500D201E06F438F
:10709000F4E700BF00BFB9FBF7FA0AFB17991348E2
:1070A00010F80A10404600F023F8D8F80C00002829
:1070B00000DA03E0B7FBF5F7002FECD100BF0D9825
:1070C00000F0010078B174B109E0641E202140464F
:1070D00000F00EF8D8F80C00002800DA02E00CB13D
:1070E000A345F2D300BFBDE8FC9F00001C300300A5
:1070F00070B504460E46A568681C6168814206D3D7
:1071000020684655681CA060E068401CE060D4E937
:10711000011088420DD1A26821682069FFF7CEFBDB
:10712000A168884203D04FF0FF30E06001E000200A
:10713000A06070BD2DE9F0470446894617464FF020
:10714000000AE56800BFD4F81080A84503D9A8EB71
:107150000500461E04E0A5EB0800401CA1680E1ABD
:10716000A068401BB04201D9304601E0A068401B36
:107170000646BE4201D2304600E038460646616807
:10718000481932464946FFF77FF9B244B144BF1B64
:107190003544A068A84200D10025E560002FD2D177
:1071A0005046BDE8F0872DE9F0470446894615466C
:1071B000E668A068871BAF4208D9616888192A462B
:1071C0004946FFF761F97019E06010E0B846616860
:1071D000881942464946FFF757F9A5EB070809EB1E
:1071E000070142466068FFF74FF9C4F80C80BDE81C
:1071F000F08702E008C8121F08C1002AFAD17047C0
:107200007047002001E001C1121F002AFBD1704726
:107210000146202908DA012088400A4A104008B1B6
:10722000012070470020FCE7402909DAA1F1200085
:10723000012202FA00F008B10120F2E70020F0E795
:107240000120EEE7FC06FFBD00BFEFF3108108460A
:1072500072B6704770B505460C4605B10CB90020F2
:1072600070BD287840082178B0EB510F01D0002084
:10727000F6E70622611C681CFFF731F908B9012006
:10728000EEE70020ECE7014601F0030008B9012019
:1072900070470020FCE7024650680068401E084026
:1072A00008B9012070470020FCE70246002104E0F5
:1072B000505C08B101207047491C0629F8D3002012
:1072C000F9E710B50346D868884206D88818401EEA
:1072D0001C69A04201D8012010BD0020FCE700007D
:1072E00010B504466CB10848C068A04209D80648E9
:1072F0000069A04205D3204604F01FFA08B101201E
:1073000010BD0020FCE70000EC23002070B504460F
:107310000D4604F24B20FFF7C8FF0646012D06D0AC
:10732000022D0DD0032D11D0042D19D113E0A07919
:1073300028B194F8240010B90EB1012070BD00BF2F
:10734000E07910B10EB10220F8E700BF207A08B151
:107350000320F3E700BF607A08B10420EEE700BF26
:107360000020EBE70146481C052290FBF2F302FBEC
:107370001300C0B2704710B501220221002001F0B5
:107380007FFB044600BF1CB1072C01D0204610BD76
:1073900000BF07220221012001F072FB044600BF5A
:1073A0001CB1072C01D02046F1E700BF0A220021C2
:1073B000084601F065FB044600BF1CB1072C01D054
:1073C0002046E4E700BF0020E1E7000030B5ABB0A5
:1073D000AC216846FFF771F802208DF80000062006
:1073E0008DF803000121ADF84C10114914910121D1
:1073F0008DF87C103221229144F2506123910D4886
:10740000299069460C4800F020FD044600BF25463F
:107410003DB100BF09A240F2B3212846FEF7FAFEB3
:1074200000BF00BF0121044800F00CFD2BB030BDAF
:10743000242200207DE602007C2400202E2E5C2EDB
:107440002E5C2E2E5C6D61696E2E630070B5044655
:10745000012C02D102F066F911E00321084800F086
:10746000C9FD054600BF2E463EB100BF05A240F251
:10747000FB213046FEF7CEFE00BF00BF00BF70BD4F
:107480007C2400202E2E5C2E2E5C2E2E5C6D6169DD
:107490006E2E630070B58CB004460D461646002073
:1074A00005E0C0F10F01615C0DF80010401C1028D0
:1074B000F7D30D2104A8FFF700F8002005E02A5CAF
:1074C000C0F10F0304A9CA54401C0328F7D368462F
:1074D00046DF002005E0C0F10F0208A9895C3154A5
:1074E000401C0328F7D30CB070BD10B50446022031
:1074F00001F060F910BD000010B5044602480178A3
:10750000204600F0C7FE10BD9722002010B50024D1
:1075100007E00749096811F83400012106F0A2FDCF
:10752000641C044800788442F3D3002010BD00009E
:10753000D0220020D42200202DE9F84306460D4633
:107540001746052F02D20720BDE8F88306F0BAFEE1
:1075500038B906F061FE044600BF204600B1F3E7EB
:1075600000BF1848066018480570184807600021D9
:10757000174A116051600020164A1060506015E0F3
:1075800006EBC50814480068009098F802008DF8D2
:10759000010098F80000114A694606F0B9FD04465A
:1075A00000BF204600B1CFE700BF00BF281EA5F1F5
:1075B0000101CDB2E4D10A4A00210A4800F02CF9B9
:1075C000C2E70000D0220020D4220020D8220020D0
:1075D000E0220020E8220020C02D030089AB020039
:1075E000C9970200BC2D03002DE9FE4307460E4655
:1075F000144672B600BF06F031F800BF00BF05F0B8
:10760000ADFD0028FBD100BF00BF012F0CD06FF4EF
:107610008050384488B1B0F5405F24D06FF44051B9
:10762000084400283BD111E02A490988012242EA96
:10763000014029A105F012FF3BE0264909880122FB
:1076400042EA01402CA105F009FF32E025462B88D3
:10765000204909884FF0010C4CEA01402FA16A68CB
:1076600005F012FF25E02546A86806F073FC804669
:10767000D5E900108DE8430016490988012343EA43
:10768000014043462CA1AA6805F022FF1149098850
:10769000012242EA014032A105F0E0FE09E00D4975
:1076A0000988012242EA0140324632A105F0E0FE9B
:1076B00000BF00BF00BF3548006800F0010000B106
:1076C00000BE00BF22463146384600F061F8BDE8F2
:1076D000FE8300004C240020534F46544445564935
:1076E00043453A20415353455254494F4E20464159
:1076F000494C454400000000534F46544445564908
:1077000043453A20494E56414C4944204D454D4F42
:1077100052592041434345535300000041535345C0
:107720005254494F4E204641494C454420617420F3
:1077300025733A25750000004552524F5220257599
:10774000205B25735D2061742025733A25750D0A31
:1077500050432061743A203078253038780000009A
:10776000456E64206F66206572726F72207265705C
:107770006F727400554E4B4E4F574E204641554C3C
:10778000542061742030782530385800F0ED00E046
:1077900018B5012300939DF800301E4B1860596006
:1077A0009A606FF48043034463B1012B19D1194BE4
:1077B000DA60DB681B88174CA3612346DB685B68D3
:1077C000E3610EE0134B1A611B699B68114C636106
:1077D00023461B691B68A36123461B695B68E36141
:1077E00000BF00BF0B4B1B680A4B5B68094B9B68D3
:1077F000084BDB68074B1B69064B5B69054B9B69B4
:10780000044BDB6972B600BF9DF80030002BFBD142
:1078100062B618BDF42A002010B503460C4600BF1E
:107820000B48807808B9082010BD00BF0AB90720AE
:10783000FAE70BB90720F7E71868007C08B10820C1
:10784000F2E71968002008744C744A6100BFEBE746
:10785000142B002010B509F0D9F800200F4908704A
:1078600048700B20887000200D4908600D49087091
:107870000D4908701420FEF7A5FF07211420FEF71C
:10788000C5FF1420FEF7AAFF002009F095F809F0C3
:107890008DF806490860002010BD0000142B002060
:1078A000F02200200023002001230020F4220020E9
:1078B0002DE9F04104460E461746254600BF104804
:1078C000807810B90820BDE8F08100BF0CB908200D
:1078D000F9E7052E01D20720F5E7686908B9082005
:1078E000F1E7687C012801D1304600E000208046A5
:1078F0003B464246314628460AF0FCF9E3E70000E1
:10790000142B002070B50446254600BF0848807837
:1079100008B9082070BD00BF0CB1686908B908201B
:10792000F8E700202874022128460AF012FAF1E74D
:10793000142B002010B50446204609F02BF910BD89
:1079400070B5044625460E488068B0B1ADB9FFF762
:107950007BFC06460A4800680A49086008484068F7
:107960004FF0E021C1F804010020054988601EB9EC
:1079700000BF62B600BF00BF00BF00BF70BD000007
:10798000202C002000E100E0F8B505460C46174623
:107990002088001DB84201D90C20F8BD684679DF67
:1079A000064600BF304600B1F7E700BF032021883C
:1079B00068542088401C2080192021886854208821
:1079C000401C208020884119BDF800000AF056FCB8
:1079D0002188084420800020DFE7704770B5054605
:1079E0000C462068401C28B1206805F04CFA20683D
:1079F00005F00CFA6068401C18B10021606805F0C1
:107A0000EBF92868A169C0F8241500BF617D227DCB
:107A1000286841EA0203C0F86C3500BFD4E90012BF
:107A2000286806F0D0FA207D012814D1A068401CF7
:107A300018B10021A06805F0CFF9E068401C28B11A
:107A4000E06805F020FAE06805F0E0F9D4E90221E9
:107A5000286806F0A1FA70BD70B505460C4620688E
:107A6000401C28B1206805F019FA206805F0DAF901
:107A70006068401C18B10021606805F0BAF92868F8
:107A8000A169C0F8241500BF617D227D286841EA04
:107A90000203C0F86C3500BFD4E90012286806F074
:107AA000C5FA207D012814D1A068401C18B100211E
:107AB000A06805F09EF9E068401C28B1E06805F078
:107AC000EDF9E06805F0AEF9D4E90221286806F086
:107AD00093FA70BD70B504460D46204603F0B4FF1E
:107AE00070BD10B50446637903F003022179208844
:107AF00003F0C4FE10BD10B50446207918B9204625
:107B000000F008F803E02046FFF7EBFF00BF00BFDE
:107B100010BD00002DE9FC41064637884FF00008F3
:107B2000002244480178384600F0CAFB7079C0F35F
:107B3000800028B90021304607F0D4FABDE8FC8166
:107B400007F5807188B26B460122072107F09CFB84
:107B5000054645B12946384609F082FA00213046EB
:107B600007F0C0FAEAE7384603F008FB04464FF690
:107B7000FF718C421BD1019803F050FA04464FF676
:107B8000FF70844213D02146384603F0D5FA3846B8
:107B9000FFF7B2FC58B9384609F0F4F93846FFF758
:107BA000ABFC20B90021304607F09CFAC6E74FF63F
:107BB000FF70844215D107F00FFD04464FF6FF70A9
:107BC000844208D10421384609F04AFA002130469F
:107BD00007F088FAB2E72146384603F0ADFA4FF0D5
:107BE000010807F5807188B22246072107F0C2FB21
:107BF000054625B90121304607F074FA17E0862DB5
:107C000007D1384609F0F0F90121304607F06AFA49
:107C10000DE02946384609F023FA0021304607F0E6
:107C200061FAB8F1000F02D0204603F08FFA00BFCE
:107C300084E7000094220020002112E00B48D0F8D5
:107C40001024012306E000BF107A884201D10023EE
:107C500002E05268002AF6D100BF0BB10846704717
:107C6000491C0A29EADB4FF0FF30F8E7B82E002064
:107C70002DE9FC4105468846164600243788002039
:107C8000308095F82D0058B13A463146404600F014
:107C900043FB044600BF204608B1BDE8FC8100BF9D
:107CA000A87850B13A4631464046FFF76DFE04468B
:107CB00000BF204600B1F0E700BFE87860B1E97886
:107CC00048B23B463246414602F04BFB044600BFF9
:107CD000204600B1E1E700BF686868B1696891F9C2
:107CE00000003B46324641460AF00DF9044600BF0B
:107CF000204600B1D1E700BF288900280EDD4346A9
:107D00000622022105F10800CDE900670AF0D2FB46
:107D1000044600BF204600B1BFE700BF288A002804
:107D20000EDD43460722032105F11000CDE900676F
:107D30000AF0C0FB044600BF204600B1ADE700BF1B
:107D4000288B00280EDD43461522142105F118006A
:107D5000CDE900670AF0AEFB044600BF204600B143
:107D60009BE700BF286A58B13B4632464146286A25
:107D700001F023FB044600BF204600B18DE700BFA1
:107D8000686A58B13B4632464146686A03F08EFF46
:107D9000044600BF204600B17FE700BF95F82C00E5
:107DA00000280BDD3B4632464146284609F0B8FA2A
:107DB000044600BF204600B16FE700BF287858B1E5
:107DC0003B4632464146284604F051F8044600BF7F
:107DD000204600B161E700BF20465EE7F8B50446E3
:107DE0000E461546002000902B466A463146204636
:107DF00000F008F807460FB90020F8BDBDF80000F4
:107E00002044FAE730B504460D4604B10AB9002013
:107E100030BD002103E0605C401C084481B2108842
:107E2000884203DC481C205C984201D0A942F2DB66
:107E3000A94201DB0020EBE7881C1080605C401E3B
:107E400080B2E5E780F83010704770B504460D4603
:107E500005B10CB90E2070BD05F1780001F04EFAA5
:107E600008B90720F7E70020A0702C2205F178015F
:107E7000201DFEF709FB002084F83000D5F8A4008F
:107E80006063D5F8A800A0634FF6FF70A4F848021D
:107E900004F50D70C4F8440200214FF41470C4F8C6
:107EA0004A12A4F84E120155207810B9FF2084F828
:107EB000540004F15500C4F8340294F82400012859
:107EC00004D1EE214FF40E70015303E01F214FF453
:107ED0000E70015304F50E7204F155012846FFF7A8
:107EE000C7FE064600BF304600B1B4E700BF04F24B
:107EF00043104FF40F71085194F82400012803D166
:107F0000EE21A4F8401202E01F21A4F840124FF421
:107F10000F70015904F5107205F13C00FFF7A8FE3F
:107F2000064600BF304600B195E700BF0121512051
:107F30000155208B81B248200153012084F83C0078
:107F400000212164502001556169616404F13C0203
:107F5000002104F1540072DF064600BF304600B134
:107F600079E700BF01202070304674E770B5044601
:107F70000D462E462088102804D0112807D0262828
:107F80000FD109E02146304606F020FC0AE02146E8
:107F9000304606F0DCFC05E02146304606F003FEE4
:107FA00000E000BF00BF70BD704770B5044694F894
:107FB000540074DF012084F85202002084F8540237
:107FC0000021502001550621204602F0E5F9054622
:107FD00000BF284600B170BD00BFA178204600F068
:107FE00009F8054625B1A06B10B12846A16B88475A
:107FF0000020F0E770B504460E46207808B9082046
:1080000070BDA67000214FF41470C4F84A12A4F891
:108010004E120155A07910B1A078012809D0E0795D
:1080200010B1A078012804D0E07970B1A0780228BE
:108030000BD1606B30B1012084F851020820616BD4
:10804000884702E0002084F8510231462046FFF7BD
:108050005DF9A070606BA0B1A078032802D0A07871
:1080600004280ED1607960B194F8520248B900201A
:1080700084F85402012084F853020720616B88477A
:1080800002E0002084F85302182104F13C00FEF7BE
:1080900014FA012084F83C0004F12C0007F070FC75
:1080A00020B194F82C105120015502E001215120FB
:1080B000015594F8240060B104F12C0007F060FC35
:1080C00020B194F828105220015502E001215220DD
:1080D0000155002150200155A078052824D2DFE861
:1080E00000F01F030A11180004F13C01204609F0BA
:1080F000A3F9054619E004F13C01204609F084F992
:10810000054612E004F13C01204609F0A7F90546B6
:108110000BE004F13C01204609F0CEF9054604E0ED
:10812000002084F8310000E000BF00BFA07898B1C3
:1081300004F13C0204F15400D4F8441272DF054605
:108140000DB128465CE794F8301094F8540073DFC2
:1081500005460DB1284653E7606B18B194F831001D
:10816000616B884700204BE72DE9F041044600BFD2
:1081700014B90E20BDE8F08100BF1C2221461C4826
:10818000FEF782F91B481A490860206860B1206830
:108190007ADF05460DB12846ECE7164821680A68E3
:1081A00002604968416005E012487BDF05460DB179
:1081B0002846DFE7002617E006EB86000E4901EBB4
:1081C000800700BF4FF6FF70388000BF0B4800EB00
:1081D000461078600A4A0021381DFFF71DFB05464E
:1081E0000DB10320C6E7761C002EE5D00020C1E7C4
:1081F0006827002048220020542700203427002030
:108200009923030010B50446204600F077F820B10A
:108210002146034803F067FF10BD0020FCE7000083
:108220009427002070B504460D46164620460AF0F5
:10823000FDF808B9002070BD034951F8240032460A
:10824000294602F01DF9F6E79C27002070B5044688
:108250000025204600F052F850B12146054803F0B1
:1082600042FF06460EB1022000E00120054600BF95
:10827000284670BD9027002010B51821044803F04F
:1082800002FF0446182C00D110BDE0B2FCE700004C
:108290008427002070B505460C4620460AF0C6F833
:1082A00050B1284600F02AF830B1044901EB8400AF
:1082B000294603F018FF70BD0020FCE79C27002032
:1082C00070B505460C46164620460AF0AFF888B150
:1082D000284600F013F868B136B1074901EB840075
:1082E000294603F00FFF05E0034901EB840029460E
:1082F00003F0A3FE70BD00009C27002010B50446CB
:10830000142C01DB002010BD2146024803F0EBFED7
:10831000F9E70000882700202DE9FC4105460C46BE
:10832000174620880930B84202D90C20BDE8FC81EC
:1083300068466DDF064600BF304600B1F6E700BF75
:108340000820218868542088401C20801B20218818
:1083500068542088401C208020882844DDF80110C3
:108360000160BDF8051081802088801D20809DF867
:108370000000400818B900202188685402E001205C
:10838000218868542088401C20800020CEE700000F
:10839000F8B505460F4600242888212841D004DC82
:1083A000102810D0112872D104E03B284CD0562858
:1083B0006DD15AE037490988032242EA014036A1CB
:1083C00005F04CF864E033490988032242EA014091
:1083D00035A105F043F8072000F07EFB044600BFFE
:1083E00026463EB100BF33A240F2FB113046FDF7F6
:1083F00011FF00BF00BFA8883249088008460188E5
:10840000314804F019F8044600BF26463EB100BFCB
:1084100028A24FF4FF713046FDF7FCFE00BF00BFFD
:1084200036E000200090A88869468FDF044600BF30
:1084300026463EB100BF1FA240F20A213046FDF79A
:10844000E9FE00BF00BF23E0A888132176DF0446C1
:1084500000BF26463EB100BF16A240F212213046B0
:10846000FDF7D8FE00BF00BF12E0A888132176DF19
:10847000044600BF26463EB100BF0EA240F21A21BC
:108480003046FDF7C7FE00BF00BF01E0FFE700BFB9
:1084900000BFF8BD4C240020446973636F6E6E65A5
:1084A000637465642E000000436F6E6E65637465CF
:1084B000642E00002E2E5C2E2E5C2E2E5C6D6169CB
:1084C0006E2E6300202200207024002070B5054627
:1084D0000E462888102802D011282CD115E0174804
:1084E000006860B901F062F8044600BF34B1144876
:1084F000006818B1204612490968884700BF0F4834
:108500000068401C0D49086016E00C480068401ED9
:108510000A4908600846006860B9FEF72CFF044667
:1085200000BF34B10648006818B120460449096804
:10853000884700BF00E000BF00BF70BD442200209C
:108540004022002070B504460D462088102806D031
:10855000112808D012280ED0502810D107E020464C
:1085600006F0FCF80CE0204606F0D8F908E02046BA
:1085700006F04AFB04E0204606F0D8F800E000BF11
:1085800000BF70BD2DE9F04104468846A5882088CB
:10859000102804D0112817D01A2849D118E008F063
:1085A000ABF9284608F022F830B900BF22A2E32137
:1085B0000420FDF72FFE06E0E07B012803D02946CA
:1085C0002C4803F09FFD33E0284608F0B9F92FE06E
:1085D000207A0121B1EB101F01DA012000E0002018
:1085E0000646207A0221B1EB101F01DA012000E0DB
:1085F000002007468EB129461E48001D03F082FD6B
:108600002FB129461B48083003F07CFD0FE02946B6
:108610001848083003F011FD09E029461548001DEF
:1086200003F00BFD29461348083003F006FD00BF98
:1086300000BFBDE8F08100002E2E5C2E2E5C2E2E99
:108640005C2E2E5C2E2E5C2E2E5C636F6D706F6E1A
:10865000656E74735C626C655C636F6D6D6F6E5C90
:10866000626C655F636F6E6E5F73746174652E63B9
:10867000000000009027002070B504460D4600BFA2
:108680000748007800B970BD00BF204602F030FCFA
:10869000204608F077FF204602F002F900BFF2E71B
:1086A0008422002070B50446204609F0E1FD05460D
:1086B00005F0010070BD000038B505F02FFB044641
:1086C00000BF25463DB100BF15A240F22D2128462E
:1086D000FDF7A0FD00BF00BF00200090694601200B
:1086E00005F050F9044600BF25463DB100BF0CA27D
:1086F00040F233212846FDF78DFD00BF00BF6846DC
:1087000005F0E4F9044600BF25463DB100BF04A2D0
:1087100040F237212846FDF77DFD00BF00BF38BD80
:108720002E2E5C2E2E5C2E2E5C6D61696E2E6300EB
:1087300001460148405C7047972B030010B5014685
:10874000094B585C00BF4FF0A044234600BFD3F84C
:108750001045C44004F001040CB1012000E00020E9
:10876000024682F0010010BD972B03007CB5002467
:108770000DE00848055D03260020009033460246C0
:1087800001460190284604F0BFFA00BF641C002C8B
:10879000EFD07CBD972B030010B5044604F0010018
:1087A00008B100F04BF804F0020008B1FFF7DEFF5B
:1087B00010BD000010B502460949885C00BF4FF0AB
:1087C000A0442146D1F80435012484409C43C1F8DB
:1087D0000845012484401C40C1F80C4500BF10BD71
:1087E000942B030010B504460249085D012104F0F2
:1087F00060FB10BD942B030010B504460249085DD0
:10880000002104F056FB10BD942B030010B5014667
:10881000094B585C00BF4FF0A044234600BFD3F87B
:108820000445C44004F001040CB1012000E0002024
:10883000024682F0010010BD942B03007CB5002499
:108840000CE00948055D0020009003460122114616
:108850000190284604F058FA00BF641C032CF0D3A2
:1088600000F004F87CBD0000942B030010B5002438
:1088700003E02046FFF7B6FF641C032CF9D310BDBC
:1088800010B5002403E02046FFF7B6FF641C032C5C
:10889000F9D310BD02464FF0FF30002106E0054B32
:1088A0005B5C934201D1084602E0491C0029F6D0E6
:1088B00000BF7047972B030070B505460C46002695
:1088C0000648056014B1204609F084F804480068A1
:1088D00010B9FEF750FD0646304670BD402200201C
:1088E0004422002010B5002000F020FB044600BF09
:1088F0001CB1062C01D0204610BD00BF012000F0A5
:1089000015FB044600BF1CB1062C01D02046F3E73E
:1089100000BF0020F0E700002DE9F04106460F46B9
:108920004FF0000800243046FFF7B4FF0446002C47
:108930003ED10FB3012F02D0022F38D130E004EB2B
:108940004400214911F8008004EB440008444078B9
:1089500050B11E4A4FF400411D480068FEF7A8FFC1
:1089600005460DB91948067004EB44001649084441
:108970008078184908551AE015480068FEF7C2FFCC
:108980001448005D04EB44010F4A11448978884281
:1089900005D104EB44001146084490F8028006E03B
:1089A00004EB44000849084490F8018000BF00BF70
:1089B000B8F1000F06D00848006818B140460649D3
:1089C00009688847BDE8F081382200203B2200205A
:1089D000A02B03003C2200203422002010B50446C6
:1089E0001CB92046FFF7AAFE10BD0020FCE70000DE
:1089F00070B50546042D06D0072D18D00A2D2FD1AD
:108A000008F088FD2DE013211748008876DF044622
:108A1000082C0BD000BF26463EB100BF13A24FF476
:108A200020713046FDF7F6FB00BF00BF19E00E488D
:108A300000884FF6FF71884211D11048FFF7B5FA50
:108A40000446082C0BD000BF26463EB100BF07A24B
:108A500040F28A213046FDF7DDFB00BF00BF00E099
:108A600000BF00BF70BD0000202200202E2E5C2E13
:108A70002E5C2E2E5C6D61696E2E63007C240020BE
:108A800030B5034600201BBB012A07D1012903D1C1
:108A900003F10E04E4B200E00024224679B101297A
:108AA00002D0022911D104E003EB4304094D2A55F9
:108AB0000DE003EB4304074D2C44627007E003EB29
:108AC0004304044D2C44A27001E0072000BF00E0E5
:108AD000072030BD3822002070B504460025054827
:108AE000007800F0010018B1204600F05BF8054660
:108AF000284670BD2C2200202DE9F04105460F4686
:108B000000241F4805601F48076005F00200F8B107
:108B1000002606E0012211463046FFF7B1FF044669
:108B2000761C0EB9002CF5D034B940F266620121F2
:108B30001548FEF701FD044614B9FEF7E7FC0446AC
:108B40002CB9124A00211248FEF766FE044600BF07
:108B500005F0010080B10120FFF71EFE2CB90D4A7F
:108B600000210D48FEF758FE04462CB90B4A01219E
:108B70000B48FEF751FE04462046BDE8F081000098
:108B80002C22002034220020A42B03005990020044
:108B9000A02B030075B70200982B0300EB740200B2
:108BA0009C2B03002DE9F047044600260025DA48F7
:108BB000007820B10020D849087002F0C7FD182CB9
:108BC0007ED2DFE804F00C16174A7EB2F6F4F3F218
:108BD000F1F0EFEEEDECEBEAE9E8E7E6E5E402F0D0
:108BE000B5FDCE480068FEF78DFE0646CC48047001
:108BF0008DE100BF0020FFF709FE58B10020FFF70C
:108C0000F1FD022C02D14FF4E16001E04FF47A60F3
:108C1000054609E00020FFF7EFFD022C01D1C82036
:108C200001E04FF4C8700546BD4804704FF40040A1
:108C3000A5FB00104FF4FA73CF1840F100015A0061
:108C400000233846FDF7DCFB814600224946B34845
:108C50000068FEF72DFE064659E10020FFF7D6FD1D
:108C600058B10020FFF7BEFD032C02D14FF448702D
:108C700001E04FF47A60054609E00020FFF7BCFDF3
:108C8000032C01D1C82001E04FF4C8700546A44868
:108C900004704FF40040A5FB00104FF4FA728F18D7
:108CA00040F10001520000233846FDF7A9FB814640
:108CB0000022494699480068FEF7FAFD064626E17B
:108CC00024E10020FFF7A2FD58B10020FFF78AFD44
:108CD000042C02D14FF47A6001E04FF47A6005462B
:108CE0000AE00020FFF788FD042C02D14FF4C87081
:108CF00001E04FF4C8700546894804704FF4004005
:108D0000A5FB00104FF4FA73CF1840F100015A0090
:108D100000233846FDF774FB8146002249467F4810
:108D20000068FEF7C5FD0646F1E00020FFF76EFD86
:108D300050B10020FFF756FD052C01D1C82001E0FD
:108D40004FF47A60054609E00020FFF755FD052C39
:108D500001D1C82001E04FF4C87005467048047086
:108D60004FF40040A5FB00204FF4FA73D71840F1F0
:108D700000015A0000233846FDF742FB81460022DD
:108D8000494666480068FEF793FD0646BFE0B8E036
:108D9000B6E0AAE0A1E098E092E05FE05DE05BE091
:108DA00059E057E051E042E033E024E015E00EE006
:108DB000FFE70020FFF7FEFC59480470002240F650
:108DC000CD4156480068FEF773FD06469FE000203F
:108DD000FFF712FD5248047099E001204E490870D7
:108DE000FFF7E8FC002240F6CD414C480068FEF752
:108DF0005FFD06468BE0012047490870FFF7DAFC6B
:108E000000224FF4804145480068FEF751FD0646B8
:108E10007DE0012040490870FFF7CCFC002240F6BD
:108E2000CD413E480068FEF743FD06466FE0012055
:108E300039490870FFF7BEFC00224FF480413748E3
:108E40000068FEF735FD064661E0FFF719FD34487E
:108E500004705CE000BF00BF00BF00BF3148006885
:108E6000FEF750FD0646C4F1110515B30EBB012DEA
:108E700018D9A8B2C82148434FF4004180FB011023
:108E80004FF4FA728F1840F1000152000023384667
:108E9000FDF7B6FA81460022494622480068FEF7EF
:108EA00007FD06460220FFF7A7FC01201E490870B7
:108EB00005E00220FFF796FC00201B49087026E021
:108EC00002F044FC1648047021E002F03FFC002050
:108ED000FFF792FC1248047019E002F037FC012001
:108EE000FFF78AFC0E48047011E002F02FFC00200E
:108EF000FFF782FC0120FFF77FFC0948047006E0C1
:108F000000BFFFF7BDFC0648047000E000BF00BFD3
:108F10003046BDE8F087000029220020982B03008E
:108F2000282200209C2B03003022002010B504468C
:108F30000121204609F050FB10BD00002DE9FC473F
:108F400004460D461646A71C4FF00108002001906C
:108F500001A8FEF7EFFC3048006828602E48006842
:108F60002D494968411A2C488068401CA0EB010932
:108F700015E00121294803F0E9F802F001FE8246DC
:108F80005146264803F0E2F8234800682249496820
:108F9000411A21488068401CA0EB010900BF4F45E1
:108FA000E7D8B8F1000F30D00021009176B10099D8
:108FB00021F00301491C0091009921F00401091DD1
:108FC0000091009964F3891100910DE0009921F05E
:108FD0000301891C0091009921F00401091D0091F1
:108FE000009964F39F5100910B4909680A4A9268FD
:108FF0001140094A0C3202EB8100009901600649D8
:10900000096839440C3A116000BF9DF80400FEF76E
:1090100097FC4046BDE8FC87B82E0020D4320020E3
:1090200070B504460D46A168481CA06020684554F0
:10903000D4E90110884202D3204603F0D8FA70BD6B
:109040000448406803490968884201D101207047FB
:109050000020FCE7B82E002010B50446207802213D
:10906000FFF75AFC10BD0000F8B50546154903206E
:10907000FFF742FD044600BF26463EB100BF12A2E4
:1090800040F2C3213046FDF7C5F800BF00BF694676
:109090000020FFF711FC044600BF26463EB100BF8A
:1090A00009A240F2C6213046FDF7B4F800BF00BF68
:1090B0009DF80000022801D1012000E00020287066
:1090C000F8BD0000F18902002E2E5C2E2E5C2E2EA3
:1090D0005C6D61696E2E63007CB50446204602F02B
:1090E0004DF8054600236A46092106F0DDF90528FA
:1090F00005D10122024801782046FFF7E1F87CBD46
:10910000602200207CB504460E460020019042F605
:10911000A620ADF8040001208DF80600074800687D
:1091200000906A4601A92046A0DF05462DB901221C
:10913000034801782046FFF7C3F87CBDFC2B0300F1
:109140006122002001468879012809D10879012887
:1091500006D1488842F60212904201D101207047A0
:109160000020FCE74FF0FF31054A42F820100828A4
:1091700004DBFF23A0F10801503253547047000074
:10918000282A00200146024850F8210070470000BC
:10919000282A00202DE9F04F03460C464FF0FF39F6
:1091A0000AB1002000E0082084460AB1082000E04F
:1091B0000C208046614624E0154850F82100401CF0
:1091C000F0B91D460846274616464FFA80FBDFF8E1
:1091D00040A00AF1300A0AF805B0DFF834A04AF8D6
:1091E00020704EB94FFA85FBA0F1080ADFF820E0A5
:1091F0000EF1500E0EF80AB000BF4FFA81F902E0EE
:10920000491C4145D8D300BF4846BDE8F08F000057
:10921000282A00200146014840567047582A00205D
:109220002DE9F04104460D464FF6FF763046844264
:109230000AD14FF48071284602F025FF86B2B6F5B8
:10924000807F10D126460EE0FF2C0CDC21462846FC
:1092500002F002FF80F001070FB1204601E04FF657
:10926000FF70064600BF3046BDE8F0812DE9F047AB
:1092700082461F480068002836D01D4800680568EF
:1092800007F094FB07461B4804682146384608F05F
:109290007FFCC61C1848007808B907F099FBAE425D
:1092A00001D2284600E03046044424F07F442046A2
:1092B00007F076FB07F07AFB80463946404608F017
:1092C00067FC00F103093946204608F061FC81453E
:1092D00009D907F06BFB814607F062FB2F2004F0F1
:1092E000ADFE08F0A3FD01E007F090FBBDE8F087BC
:1092F000F0220020F422002002230020014688787A
:10930000012805D191F82000012801D100207047E3
:10931000886A042802D0486A042801D10020F6E7B0
:109320000120F4E733B58BB00546002000900C987F
:1093300078B100240BE021460CA802F0D4FE28B13D
:10934000009A501C009001A820F81240641C142CB4
:10935000F1D32C2269462846FDF796F80DB030BDB2
:1093600001460888062808DB0888B0F5486F06DD46
:1093700008884FF6FF72904201D007207047488856
:10938000062808DB4888B0F5486F06DD48884FF6A8
:10939000FF72904201D00720F0E708884FF6FF7275
:1093A000904208D04888904205D008884A88904268
:1093B00001DD0720E2E70020E0E72DE9F041074664
:1093C0000D46144698462088801D404502D90C2041
:1093D000BDE8F0813846FFF7C3FF064600BF3046C0
:1093E00000B1F5E700BF0520218868542088401CA3
:1093F00020801220218868542088401C20802288E8
:109400005119388808F03AFF2188084420802288C2
:109410005119788808F032FF218808442080002004
:10942000D6E7000010B5044600BF04A24FF4C8718F
:109430002046FCF7EFFE00BF10BD00002E2E5C2E74
:109440002E5C2E2E5C6D61696E2E630030B587B088
:109450001C216846FDF731F8002000904FF42030C1
:1094600001904FF47020029003208DF80C00002032
:10947000ADF80E008DF810000A4805900A480690D5
:109480006846FEF771FE044600BF25463DB100BFA9
:1094900006A240F2A7112846FCF7BCFE00BF00BFA1
:1094A00007B030BDEDE60200259402002E2E5C2EA2
:1094B0002E5C2E2E5C6D61696E2E6300F8B505463C
:1094C0000C46607A88B9207A10B91048476801E0E4
:1094D0000E4887682A4639466068FEF7E9F906466D
:1094E00016B1304607F060FD0EE0002020720748FC
:1094F000406948B101208DF80000ADF802500348E2
:1095000041696846884700BFF8BD00006827002011
:10951000F0B587B004460D4617461E4618220B4983
:1095200001A8FCF7B1FFADF806408DF80C50ADF87E
:109530000E708DF810600022054801782046FEF775
:10954000BFFE01A800F0AAFC07B0F0BDD82C0300B4
:109550009422002010B586B00446208805F08EFDC8
:1095600000BB2088FEF74EFE30B92088012241F270
:10957000060100F0E5F915E0208800220A49097883
:10958000FEF79EFE02208DF800002088ADF8020054
:1095900000208DF8080000218DF80910684600F0C1
:1095A0007DFC00BF06B010BD9422002010B5012242
:1095B00000210846FFF764FA044600BF1CB1072CDF
:1095C00001D0204610BD00BF072202210120FFF775
:1095D00057FA044600BF1CB1072C01D02046F1E722
:1095E00000BF042202210020FFF74AFA044600BF10
:1095F0001CB1072C01D02046E4E700BF0020E1E7C2
:109600002DE9FF4105460C46002002900390ADF87D
:109610000840ADF80A40009001906A4602A9284629
:1096200090DF0646002E2CD0304604F093FC07460F
:1096300016490988012242EA01403B462A4614495C
:1096400003F022FFBDF8000010B9BDF8020058B1C8
:10965000BDF80230BDF800200C490988012747EA0F
:1096600001400CA103F010FFBDF8040048B1BDF8A3
:10967000042006490988012343EA0140154903F003
:10968000F7FE304604B0BDE8F08100000C24002055
:10969000583103005468652072657175657374658F
:1096A000642054582F5258207061636B6574206C8D
:1096B000656E67746820697320746F6F206C6F6EBD
:1096C000672062792025752F2575206F6374657476
:1096D000732E0000A43103002DE9F04105460F462A
:1096E0000F4C0121204602F068FD064600BF00BF76
:1096F00000BF00BFBFF35F8F00BF00BF00BF0EB948
:10970000012000E0002040B1284602F0E9F908B14C
:10971000BDE8F081024804F0B5F800BFF8E70000AA
:109720005822002070B50C490988032242EA014002
:109730000AA103F093FE06F0A9FC044600BF2546EB
:109740003DB100BF09A240F269212846FCF762FD45
:1097500000BF00BF70BD00004C2400204572617343
:109760006520626F6E647321000000002E2E5C2E57
:109770002E5C2E2E5C6D61696E2E630070B5064600
:109780000D460EB1012070BD287920B1012809D005
:10979000022813D10FE002202871284606F080FF2E
:1097A00004460DE0284600F09FFD04460A2C01D136
:1097B00041F61D5404E041F61D5401E00F2400BFA2
:1097C00000BF2046DFE700002DE9F04F85B04FF0E5
:1097D000000B56E02E48006800EBCB0422780121F4
:1097E0000020CDE9000108460099FCF73AFE074643
:1097F0008846284806C807EA010008EA0201002353
:1098000058405940084338D02248D0E90010B943A5
:1098100020EA08001F4AC2E90010207804F0F2FC98
:109820008246227801210020CDE9030108460399F0
:10983000FCF717FE184B0CCB00EA020601EA030501
:1098400022780020D146029048460299FCF709FE92
:1098500046404D402E430FD16078012800D100E0F2
:10986000002080EA0A0080F00105606818B1E9B2C2
:1098700020786268904700BF00BF0BF1010000F044
:10988000FF0B064800788345A4DB05B0BDE8F08FE8
:10989000D0220020E8220020E0220020D422002054
:1098A00070B5044620793D2802D141F23D0001E027
:1098B0004FF48850054620880022294601F0DEFF3B
:1098C00070BD000010B50021034802F076FC04468C
:1098D00084F3100010BD0000D4320020014614486B
:1098E0000078144A127890421DD011480078401C2C
:1098F0000F4A107010460078022801D10020107025
:109900000D480B4A127850F8220008600B4A08688C
:1099100012681044094A10601046006820F07F4029
:109920001060012070470020086000BFFAE70000C7
:109930000023002001230020F8220020F422002030
:1099400070B506460C4615462B4622460021304689
:10995000FFF7DEFD70BD00002DE9F84305460E4619
:109960001746984669461048006802F02EFB0446E8
:1099700014B90420BDE8F8831C212046FCF79DFDA6
:10998000012020712560C4F8088008480068B6FBF3
:10999000F0F0E060676169460348006802F03FFB51
:1099A00006F0ACFD0020E5E76C2E0300602E0300FE
:1099B00010B50446D4E90321501828DF10BD00007B
:1099C00013480078062820D11148001D007800F0C7
:1099D0000F00D0B90E480830007800F0F0003028B1
:1099E00001D1012070470A480830007800F0F000EB
:1099F000402801D10120F5E705480830007800F043
:109A0000F000502801D10120ECE70020EAE7000037
:109A1000E00F00F013480078062820D11148001DFF
:109A2000007800F00F00D0B90E480830007800F040
:109A3000F000302801D1012070470A480830007832
:109A400000F0F000402801D10120F5E7054808307A
:109A5000007800F0F000502801D10120ECE7002050
:109A6000EAE70000E00F00F013480078062820D154
:109A70001148001D007800F00F00D0B90E480830E2
:109A8000007800F0F000302801D1012070470A482A
:109A90000830007800F0F000402801D10120F5E7FF
:109AA00005480830007800F0F000502801D101206E
:109AB000ECE70020EAE70000E00F00F00A48007839
:109AC00006280ED10848001D007800F00F0040B9AC
:109AD00005480830007800F0F000302801D101205E
:109AE00070470020FCE70000E00F00F00648006827
:109AF000062806D10448001D0068062801D101206F
:109B000070470020FCE70000300100101348007887
:109B1000062820D11148001D007800F00F00D0B9B0
:109B20000E480830007800F0F000302801D1012004
:109B300070470A480830007800F0F000402801D152
:109B40000120F5E705480830007800F0F0005028C3
:109B500001D10120ECE70020EAE70000E00F00F06F
:109B60000A48007806280ED10848001D007800F049
:109B70000F0040B905480830007800F0F0003028A8
:109B800001D1012070470020FCE70000E00F00F049
:109B900013480078062820D11148001D007800F0F5
:109BA0000F00D0B90E480830007800F0F0003028DF
:109BB00001D1012070470A480830007800F0F00019
:109BC000402801D10120F5E705480830007800F071
:109BD000F000502801D10120ECE70020EAE7000066
:109BE000E00F00F00A48007806280ED10848001D52
:109BF000007800F00F0040B905480830007800F008
:109C0000F000302801D1012070470020FCE700005F
:109C1000E00F00F00A48007806280ED10848001D21
:109C2000007800F00F0040B905480830007800F0D7
:109C3000F000302801D1012070470020FCE700002F
:109C4000E00F00F00A48007806280ED10848001DF1
:109C5000007800F00F0040B905480830007800F0A7
:109C6000F000502801D1012070470020FCE70000DF
:109C7000E00F00F00278072A38D2DFE802F037045C
:109C80000712222B340000220A7030E001220A70F1
:109C900003898B818388CB81C2688A6000230B741F
:109CA00025E002220A7003898B818388CB81C268F8
:109CB0008A60827D062A01D1012300E000230B7413
:109CC00015E003220A70C3888B810389CB81C268A7
:109CD0008A600CE004220A70C3888B810023CB8148
:109CE00000228A6003E005220A7000E000BF00BF86
:109CF0007047000070B50546002409E0064850F89A
:109D0000240020B1044850F8241028468847641CD9
:109D1000042CF3D370BD00002C2C002030B587B08C
:109D200004460D462068806808B907B030BD182188
:109D300001A8FCF7C2FB0295A0680690207910B13B
:109D4000012815D109E001208DF804002069039055
:109D5000E0680490606905900BE002208DF8040033
:109D60000749E0680968484303906069059000E08E
:109D700000BF00BF2068816801A8884700BFD4E702
:109D8000602E030070B586B006460C46154684B3B7
:109D9000112C2ED0082C2CD018216846FCF78DFBF6
:109DA000ADF80260304601F0E9F9ADF804000D2C81
:109DB00014D103208DF800002DB1287800F00100A7
:109DC00008B1012000E002208DF8080000218DF884
:109DD0000C1041F20111ADF80A1006E007208DF8D1
:109DE0000000029400218DF80C10684600F06AF81B
:109DF00000BF06B070BD10B50446204600F062F802
:109E000010BD000070B50446608801F0B7F9A0806D
:109E1000002505E0044850F82510204688476D1CB1
:109E2000002DF7D070BD00005022002070B5044610
:109E3000A08801F0D3F86080002505E0044850F8C0
:109E40002510204688476D1C002DF7D070BD0000FE
:109E50006422002070B50546002405E0044850F84F
:109E6000241028468847641C022CF7D370BD0000DC
:109E7000402C030070B50546002405E0054850F865
:109E8000241028468847641C034800788442F5DB88
:109E900070BD0000DC2900209222002070B504462D
:109EA000608801F06BF9A080002505E0044850F8B7
:109EB0002510204688476D1C002DF7D070BD00008E
:109EC0008C2C030070B50546002405E0044850F8CA
:109ED000241028468847641C002CF7D070BD000071
:109EE000182D0300F0B5034600241FE0124E306821
:109EF00006689E4203D90668F61A06601AE00668EC
:109F00009B1B06683444002606600B4E35680A4FDA
:109F1000C6693E60C66846B10E1926F07F464660A7
:109F2000C66886601668C661156000BF0248006892
:109F30000028DBD100BFF0BDF022002010B586B0B4
:109F4000044618216846FCF7B8FAA08900F0E6F943
:109F5000ADF804002078062867D2DFE800F0660339
:109F60000405315000BF00BFA08900F0DCF918B92A
:109F7000E08906F0B4FC10B3E08906F0ADFC8DF882
:109F800008002078032801D1012100E000218DF88C
:109F90000910A1680391606830B908208DF80000AD
:109FA00001218DF8101007E009208DF8000061688C
:109FB000049101218DF81410684605F0FDF935E093
:109FC000A08900F0B0F9C8B1E089B8B9606838B9C3
:109FD0000A208DF80000BDF8040005F0CBFB07E077
:109FE0000B208DF800006068029001218DF80C10A4
:109FF000012012490870684605F0DEF916E0606835
:10A0000018B913208DF8000007E014208DF8000027
:10A010006068029001218DF80C104FF6FF70ADF8CA
:10A020000400684605F0C8F900E000BF00BF03481F
:10A03000007808B105F0FAFA06B010BD71220020D0
:10A0400038B505460E48007808B9022038BD4FF6ED
:10A05000FF70854201D10420F8E7684606F030F928
:10A0600004460CB90820F1E705202070012020717A
:10A07000E580684606F034F906F034FA0020E5E79A
:10A080000423002038B50D48007808B9022038BDF7
:10A09000684606F015F904460CB90820F7E70620D3
:10A0A0002070684606F01CF90548007810B10120C0
:10A0B0000349087306F016FA0020E8E7042300209D
:10A0C000F02C002070B586B0142101A8FCF7F5F93A
:10A0D0002D48007828B101A8FFF70CFE002006B03B
:10A0E00070BD2948001D02F02AF808B10020F6E7EB
:10A0F00000F0B8F906460EB13046F0E706F01CF95C
:10A1000004F006FF054625B1022D03D0062D0DD122
:10A1100002E000BF0B20E2E701201B49087000208D
:10A12000486001A8FFF7E6FD0020D8E700BF00BFA8
:10A13000684606F0C5F804460CB90820CFE70120B0
:10A1400020700C2D16D2DFE805F015061507151145
:10A150001512150A0E0B00BF002020710BE000BF86
:10A160000320207107E00220207104E000BF0120DD
:10A17000207100E000BF00BF684606F0B1F806F0AD
:10A18000B1F90020ABE700000423002038B50446F5
:10A190000CB9052038BD6946204606F09FFA00B389
:10A1A000BDF8000000EB80000F4901EB8000C068A3
:10A1B000A8B1A07A98B1BDF8000000EB800001EBD7
:10A1C0008000C068401EBDF8001001EB8101064A06
:10A1D00002EB8101C8600020A072002502E0062584
:10A1E00000E00A252846D5E7C82C00207FB5144694
:10A1F0001D462B46224601A9684606F00BFA04B01C
:10A2000070BD37B50C4615462B46224669460020E0
:10A2100006F000FA3EBD37B50C4615462B462246E1
:10A220000021684606F0F6F93EBD024602B109B9C2
:10A2300005207047106808600020FAE7F8B504466A
:10A240000D4604B10DB90520F8BD6946204606F05B
:10A2500045FAA0B16668BDF8001001EB8101094A1A
:10A2600002EB810101F10C00012101F06FFF2E6072
:10A2700060680C3068600120A0720020E4E70A20CA
:10A28000E2E70000C82C002070B504460D460CB96A
:10A29000052070BD032300222946204608F026FB36
:10A2A000F7E770B504460D460223002229462046F2
:10A2B00008F01CFB70BD000070B50546084800683A
:10A2C000042801D10C2409E006480549096840F832
:10A2D00021500121024801F039FF0024204670BDC1
:10A2E000102300202C2C00203EB504460A4B6A4661
:10A2F0000021A01D06F08EF9054635B9064A918861
:10A30000019806F065FA054603E003480021016064
:10A31000416028463EBD0000342300200146A1F5DF
:10A32000404080B270470146B1F5404F05DB4FF623
:10A33000FE70814201DC012070470020FCE710B56F
:10A3400004462078182802D1FDF796FF207010BD32
:10A3500010B504462078182802D1FDF78DFF207033
:10A3600010BD30B504461088C01C984201D90C209D
:10A3700030BD0220158848551088401C10800120EF
:10A38000158848551088401C108015884C55108839
:10A39000401C10800020EBE770B504460D464FF4DA
:10A3A0000E72115B0122D4F83402FDF717FD064648
:10A3B00006B1357004F13C0204F50D7104F154004E
:10A3C00072DF70BD2DE9F04106460C4615460027A8
:10A3D000112C01D1012700E0002765B13A460A4857
:10A3E00001783046FDF76CFF0022084801783046BE
:10A3F000FDF766FF05E03A46044801783046FDF770
:10A400005FFFBDE8F0810000AF220020AC220020F9
:10A4100010B54FF4405400F009F8034908610846AC
:10A420000069001BC86010BDEC23002010B540F689
:10A43000F8700068401C18B94FF01020406902E025
:10A4400040F6F870006803464FF080500169426999
:10A45000581C08B1184601E002FB01F004462046F2
:10A4600010BD000010B5FFF7D3FF002202490348DA
:10A4700002F070FA10BD0000702E0300EC230020E3
:10A48000F7B50D4617460DB90020FEBD0026009811
:10A4900068B1002409E02146684601F024FE18B1A5
:10A4A000A0B23946A847761C641C142CF3D330465E
:10A4B000EBE710B50446606805F06CFF10BD0000C6
:10A4C0003EB500BF9DF8000020F00F00401C00903A
:10A4D0009DF8000020F0F0001030009000BF0A222C
:10A4E00017A168467CDF044600BF25463DB100BF8A
:10A4F00016A240F225112846FBF78CFE00BF00BFD4
:10A500000020019002905020ADF80400A020ADF88A
:10A5100006000020ADF808004FF4C870ADF80A003E
:10A5200001A87ADF044600BF25463DB100BF07A25F
:10A5300040F22F112846FBF76DFE00BF00BF3EBD65
:10A540004F75725365727669636500002E2E5C2E1E
:10A550002E5C2E2E5C6D61696E2E630070B500213D
:10A56000084801F0CEFE044600BF25463DB100BFBD
:10A5700005A24FF49C712846FBF74CFE00BF00BFBC
:10A5800070BD00005C2400202E2E5C2E2E5C2E2E32
:10A590005C6D61696E2E630070B505460DB10120DA
:10A5A00070BD1848007B18B100201649087301E0FF
:10A5B00000F0DEF81348007808281DD2DFE800F02C
:10A5C0001C04080C101C141800F03EF8044615E09A
:10A5D00000F0BCF8044611E000F098F804460DE0E5
:10A5E00000F046F8044609E000F02CF9044605E0C6
:10A5F00000F03AF9044601E00F2400BF00BF2046F6
:10A60000CEE70000F02C00200D480089401C0C49CA
:10A61000088100204880087300BF0DE000EB800136
:10A62000084A12F8211009B9012200E00022044969
:10A630000A310A54411C88B20228EFDB704700003F
:10A64000F02C0020C82C002010B5084800F036F887
:10A6500040B900200549891E08704880486041F6CD
:10A660001D5010BD00F072F8FBE70000F22C002036
:10A6700070B50F48458805EB85000E4901EB800059
:10A68000C06878B904200A49087005EB8500094ABA
:10A6900002EB8000002301224168074802F0AEF877
:10A6A000044602E000F090F80446204670BD000029
:10A6B000F02C0020C82C0020EC23002010B501460F
:10A6C0000022002018E00F4B1B5C9BB100240D4BB7
:10A6D0001C5400EB80030C4C04EB8303DB684BB988
:10A6E00000EB800304EB83031B7C012B02D1088069
:10A6F000012203E0431C98B20228E4DB00BF1046AD
:10A7000010BD0000FA2C0020C82C0020F8B50C4821
:10A7100044680C4800680B49898800EB8105608813
:10A72000C01C86B20320064908700020B3000090C8
:10A73000084629464268044802F0C6F9F8BD000000
:10A74000F02C00202C230020EC23002010B507491A
:10A750004888091D06F000F818B1FFF7D7FF044636
:10A7600002E0FFF785FF0446204610BDF02C0020D4
:10A7700010B514480078082820D2DFE800F0041F44
:10A780001F0A1016171BFFF73FFF01200D49087025
:10A7900015E000F075F802200A4908700FE000F09B
:10A7A00029F806200749087009E000BF072005497D
:10A7B000087004E001200349087000E000BF00BFFA
:10A7C00010BD0000F02C002010B5052006490870CF
:10A7D00002200649888008460023012201680448B7
:10A7E00002F00CF810BD0000F02C00202C230020FB
:10A7F000EC230020104908681049498801EB8101C9
:10A800000F4A02EB810149680B4A11600B494988E4
:10A8100001EB81010A4A02EB8101486006498988FF
:10A82000064A528802EB8202054B03EB8202118139
:10A830000221014A918070472C230020F02C002037
:10A84000C82C002010B5062005490870498801EB86
:10A850008101044A02EB8101486804F037FB10BD16
:10A86000F02C0020C82C002010B5072003490870E8
:10A870000020486004F03AFB10BD0000F02C0020DE
:10A88000054A50684288D21C91B2044A92880A4410
:10A89000024B9A8070470000F02C00202C230020EF
:10A8A0002DE9F04186B00446A588208850282ED096
:10A8B00004DC352836D0362808D163E0522802D08F
:10A8C0005428F9D103E0284601F0BEF87BE01822B5
:10A8D00044496846FBF7D8FDADF80250284600F021
:10A8E0004DFCADF80400BDF8040000F09FF9002213
:10A8F0003D4801782846FDF7E3FC00223B480178FB
:10A900002846FDF7DDFC6846FFF77CFA5BE0A01DFA
:10A91000FEF718FC28B10121284601F0D5F807F010
:10A9200021FD50E00027A58804F10A06304801788F
:10A930002846FDF7AFFC00B945E000222C4801781D
:10A940002846FDF7BDFCE088B0F5857F14D0E0888F
:10A9500090B9708801280FD1B18800222846A1DF64
:10A960008046B8F1000F06D1012701222148017865
:10A970002846FDF7A5FC00BF1FB90021284607F0B7
:10A98000A7F820E00027A58804F10A0619480178F5
:10A990002846FDF77FFC00B915E000221548017834
:10A9A0002846FDF78DFCE08840B9B088012805D124
:10A9B000B07908B1012000E000200746394628465A
:10A9C00007F086F800BF00BF00BF00220A490B480D
:10A9D0000078FDF727FC00BF06F0FAFB06B0BDE8E3
:10A9E000F0810000102C03005F2200205E22002076
:10A9F0006122002062220020D57A02005D22002020
:10AA000010B50446207858B9608801F01DF86088B8
:10AA100006F0CEFB6088FEF75FFB07F0A3FC00E0CA
:10AA200000BF00BF10BD000010B500F005FDFDF730
:10AA300023FC25490870FDF71FFC24490870FDF729
:10AA40001BFC23490870FDF717FC22490870FDF72D
:10AA500013FC21490870FDF70FFC20490870FDF731
:10AA60000BFC1F49087018480078182817D01748A1
:10AA70000078182813D01648007818280FD01548E9
:10AA8000007818280BD014480078182807D01348ED
:10AA90000078182803D008460078182801D1032030
:10AAA00010BD00BF00200F49086000BF00BF00BFFD
:10AAB00000BFBFF35F8F00BF00BF00BF00BF01201A
:10AAC000094908700020EBE75C2200205D2200208D
:10AAD0005E2200205F2200206022002061220020F0
:10AAE0006222002058220020542200207CB5044617
:10AAF0002078082840D1607A00283DD1207A0128AA
:10AB000014D0072802D0082834D12BE0A08800F008
:10AB100065FA05464FF6FF70854206D001212846AA
:10AB200000F0D2FF2846FEF7D7FA24E0A0886A4654
:10AB3000012104F075FB06469EB90198007880B1AA
:10AB4000A08800F04BFA05464FF6FF70854207D00B
:10AB500001220B4801782846FDF7B2FB06F038FBCE
:10AB600000BF08E007480068012802D1054802F04C
:10AB700089FE00E000BF00BF07F0F4FB7CBD0000D1
:10AB80005E220020582200202DE9F04780468A46A8
:10AB900042460126002730463946FBF762FC044650
:10ABA0000D461E480068FCF7ADFE8146B9F1000F66
:10ABB00001D0BDE8F0871A4903C92040294000238D
:10ABC00058405940084321D1404603F01BFB30B1A7
:10ABD000144903C920432943124A03C207E011481C
:10ABE000D0E90010A143A8430E4AC2E900100C4965
:10ABF00003C9204329430A4A03C200220A480168C4
:10AC000006480068FCF754FE814605E0044903C984
:10AC1000A043A943024A03C200BFCAE7BC2D0300F8
:10AC2000E8220020E0220020D82200201CB50446A3
:10AC3000044903C9CDE9000100226946204604F019
:10AC400080FC1CBD382C030010B500F0FBFB01207C
:10AC500001490870002010BD682200202DE9FC4742
:10AC60008146484600F08AFA0546002600274FF044
:10AC700003084FF0010A4FF6FF7085420CD06A4678
:10AC80000821284604F0CCFA04462CB90198861D08
:10AC90008788D0F8008000BF00BF43463A4631465F
:10ACA0004846B1DF0446042C01D1112415E0082CDC
:10ACB00001D1002411E00B2C0FD14FF0000A08F055
:10ACC000020010B14FF0010807E006B927B10026D5
:10ACD00000274FF0030800E003240B2CDDD0BAF16D
:10ACE000000F00D10B242046BDE8FC872DE9FC476E
:10ACF0008046404600F042FA06464FF6FF70864214
:10AD000003D143F20200BDE8FC874FF001094FF088
:10AD1000000A00BF4FF0000A4A46511C1FFA81F991
:10AD20006B460821304604F0AFFA04460CBB019D87
:10AD3000032028602A1DA91D40462B68B2DF044667
:10AD400034B932460821304604F014FB04460FE0C3
:10AD50000C2C02D14FF0010A02E0052C00D1002496
:10AD60000821304604F0F6FA074607B1032400BF75
:10AD700002E0072C00D10C24BAF1000FCAD100BFA9
:10AD80002046C0E710B50446044800884FF6FF711E
:10AD9000884201D006F028FA10BD00006A22002087
:10ADA000FEB5044602A80190204600F0E7F90646E9
:10ADB0006A460121304604F033FA05460DB1002001
:10ADC000FEBD01980078FBE770B505464FF6FF76AB
:10ADD0000E48B3DF04460CB1032070BD00BF4FF630
:10ADE000FF720A4801882846AFDF044643F2030099
:10ADF000844204D105480088401C0449088043F27D
:10AE000003008442EBD02046E7E700006C220020DC
:10AE100070B504460D46204600F01AF8A84201D944
:10AE2000022070BDA0884FF6FF71884201D02088B3
:10AE300008B90120F5E70020F3E7024613468B42EC
:10AE400004D21868401C08B1012070470020FCE7BC
:10AE500001464A8801F10C0000EB8200704710B5F2
:10AE600002F07CF908B902F039FD10BD3EB5044688
:10AE70000D4620780221B1EB500F01D000203EBDDD
:10AE8000B4F80100ADF80800E0788DF80A00A18858
:10AE9000ADF80010A0798DF8020001AA6946284695
:10AEA000FCF7F8FA032201A902A8FBF718FB08B97E
:10AEB0000120E4E70020E2E770B504460D46142CBB
:10AEC00003DA2046FDF71AFA10B943F2020070BD0A
:10AED00004EB8400054901EB4000D0F80210296022
:10AEE000C188A980007AA8710020F0E7FC27002023
:10AEF00030B591B005462888102801D011B030BD7A
:10AF00002C22291D06A8FBF7BFFA4FF6FF749DF807
:10AF10001C000321B1EB500F35D004F0BDFA9DF8B1
:10AF20001C00400820B1012803D0022828D114E0D9
:10AF300000BF09E0049800F1110107A8FCF78AF9A5
:10AF400010B1BDF8144006E003AA05A9072004F0DB
:10AF50006DFA0028EED100BF13E008E00498411C10
:10AF600007A8FFF783FF10B1BDF8144006E003AA5D
:10AF700005A9072004F05AFA0028EFD100BF00E02D
:10AF800000BF00BF00BFBDF8180000EB80001249F1
:10AF900021F81040BDF8180000EB800001EB4000E4
:10AFA0000799C0F80210BDF82010C1809DF822104A
:10AFB00001724FF6FF7084420CD0BDF81800ADF856
:10AFC0000200ADF8044000208DF800006846FEF74E
:10AFD00041FF00BF00BF91E7FC27002070B5054688
:10AFE0004FF6FF70854200D170BD00240EE004EBE7
:10AFF0008400094931F81000A84205D12046FDF728
:10B000007DF908B12046EFE7601C84B2142CEEDB1A
:10B010004FF6FF70E8E70000FC2700203EB505462C
:10B020000C4604F039FA0BE0BDF80800A04207D046
:10B030002846019900F00EF810B1BDF808003EBD99
:10B040006A4602A9072004F0F1F90028ECD14FF676
:10B05000FF70F4E72DE9F04704460D4604F11106B0
:10B0600005F111071022691C601CFBF738FA48B97A
:10B07000601C00F056FB28B1681C00F052FB08B1C0
:10B08000012000E00020824639463046FCF7E2F815
:10B09000804630780221B1EB500F10D03078032178
:10B0A000B1EB500F0BD038780221B1EB500F06D026
:10B0B00038780321B1EB500F01D0012000E00020CF
:10B0C0008146B8F1000F02D0B9F1000F05D1BAF1F5
:10B0D000000F05D0B9F1000F02D10120BDE8F087C3
:10B0E0000020FBE70246108808B1012070470021CC
:10B0F00005E0901C405C08B10120F7E7491C0829D5
:10B10000F7D30020F2E770B505460C462846FFF756
:10B11000E9FF08B9002070BD28882188884201D045
:10B120000020F8E70822A11CA81CFBF7D8F908B9F1
:10B130000120F0E70020EEE7142804DA00EB80029B
:10B14000014B23F812107047FC27002070B506460B
:10B150003046FFF743FF0446304604F06CF80546DE
:10B1600045B9142C06DA4FF6FF7004EB8401024A4D
:10B1700022F81100284670BDFC27002010B50446B7
:10B18000142C03DA2046FDF7B9F810B94FF6FF701A
:10B1900010BD04EB8400024931F81000F8E700000C
:10B1A000FC2700203EB5044604F076F910E0019833
:10B1B00000F146012046FFF7A6FF30B9019800F1E3
:10B1C0002A012046FFF79FFF10B1BDF808003EBDE1
:10B1D0006A4602A9072004F029F90028E7D14FF6B2
:10B1E000FF70F4E770B504460D46094860600948F1
:10B1F00000F0A5FF50B902F0EBFD064908741C23CE
:10B200008C2205490548006800F0CBFE002070BD87
:10B21000602E0300982D00200C2D00206C2E0300C2
:10B220002DE9F04106460C460F272EB10020424979
:10B2300048600120BDE8F081207930B101280AD0B2
:10B24000022835D003286DD140E00120207103F0A1
:10B250004DFE074667E04FF00008002519E005EBBA
:10B260008500364911F82000022810D1002005EB96
:10B270008501324A02F821004FF0010805EB8501F3
:10B2800002EB8101486803F021FE074603E0681CD9
:10B2900085B2022DE3DB00BFB8F1000F07D101201A
:10B2A000254908700020486041F61D50C2E73AE089
:10B2B00000202071022022498880084600230122B4
:10B2C0000168204801F09AFA07462CE0002020711E
:10B2D0001B49086803F0FAFD07461B4845881848D3
:10B2E000D0F8008005EB8500144901EB8000406830
:10B2F0001349086005EB8500104901EB8000C0F898
:10B3000004800F48808805EB85010C4A02EB81011F
:10B31000088102200A498880002005EB850102F897
:10B32000210000E000BF00BF27B1002002494860B3
:10B330000E207FE700207DE704230020C82C00209A
:10B340002C230020EC230020F02C002002460021BA
:10B350000CE001EB8100074B33F82000904204D150
:10B3600001EB810003EB80007047491C0029F0D0FD
:10B370000020F9E7542700202DE9FC5F83460E46A4
:10B3800091461F46DDE90C45002E01DA704200E0CF
:10B39000304682464FF0010803E09AFBF9FA08F1C3
:10B3A0000108CA45F9DA474500D9B84634B1002E3C
:10B3B00003DB05F00400042800D1641E05F0020040
:10B3C00000B167B105F0010048B944B104E0641E62
:10B3D00020215846FDF724FE0CB1A045F7D3002EDE
:10B3E00005DA76422D215846FDF71AFE07E005F0F2
:10B3F0000400042803D12B215846FDF711FE05F067
:10B40000020002280DD105F0010050B94FB944B136
:10B4100004E0641E30215846FDF702FE0CB1A04541
:10B42000F7D33B464A4631465846CDE9004506F03B
:10B430003DFFBDE8FC9F00000020014908707047F7
:10B44000542200200020034908704FF6FF70024983
:10B4500008807047682200206A22002010B500246E
:10B4600007E004EB4401044A02EB810007F017FAFD
:10B47000641C022CF5D310BDE428002010B504464E
:10B4800040212046FBF719F810BD00004FF6FF7071
:10B49000024908800020024908607047902200207D
:10B4A0008822002070B505460949286802F079FD18
:10B4B000286802F0CFFD0446204600F01F0201215B
:10B4C0009140044A430942F8231000BF00BF70BDF9
:10B4D0008402020080E100E070B505460949286851
:10B4E00002F090FD286802F0B9FD0446204600F005
:10B4F0001F0201219140044A430942F8231000BF72
:10B5000000BF70BD1003020080E100E02DE9F041B2
:10B5100004460E464FF48E71206802F036FD4FF45B
:10B52000A271206802F031FD1749206802F03CFD4D
:10B53000206802F08FFD0546374628463946002828
:10B5400009DA4A074FEA126C104A00F00F031B1F7A
:10B5500002F803C003E04A07130E0D4A135400BF5C
:10B5600000BF206802F076FD0546284600F01F0265
:10B57000012191404209920002F1E022C2F800113B
:10B5800000BF00BFBDE8F0818000020018ED00E0C0
:10B5900000E400E02DE9F04104460E464FF48871C6
:10B5A000206802F022FD4FF49071206802F01DFD2A
:10B5B0004FF49271206802F018FD4FF4A2712068D8
:10B5C00002F013FD1749206802F01FFD206802F009
:10B5D00045FD0546374628463946002809DA4A0718
:10B5E0004FEA126C104A00F00F031B1F02F803C051
:10B5F00003E04A07130E0D4A135400BF00BF206832
:10B6000002F02CFD0546284600F01F020121914062
:10B610004209920002F1E022C2F8001100BF00BF0F
:10B62000BDE8F0811003020018ED00E000E400E046
:10B6300030B502460020137803F003031BB11378E2
:10B64000C3F380034BB31378C3F38003CBB11378F8
:10B6500003F00303012B02D0022B10D107E0138863
:10B66000C3F383139B1C0C6823440B6008E00B6836
:10B670000225146805EB945423440B6000E000BFDE
:10B680000AE00124136804EB93531488C4F389146B
:10B6900023440C6823440B60012030BD014603485D
:10B6A000007A08B1012070470020FCE7982D0020A7
:10B6B0002DE9F0410446A08800EB020CB4F80480A8
:10B6C000904501DD104600E0A088A8EB0005E08869
:10B6D000C618B4F80680984501DD184600E0E088F9
:10B6E000A8EB00074888B4F80080404504DB488890
:10B6F000B4F80280404502DD0020BDE8F081888872
:10B70000A84202D38888604501D90020F5E7C8889F
:10B71000B84202D3C888B04201D90020EDE7012029
:10B72000EBE70246002104E0505C08B101207047BD
:10B73000491C1029F8D30020F9E7014601F0030065
:10B7400008B9012070470020FCE7000010B5084848
:10B75000007850B1002405E0022C02D02046FDF70D
:10B7600041F8641C032CF7D301E0FDF77FF810BD0E
:10B770003022002010B504460448007800F0010093
:10B7800018B103480078FDF70DFA10BD2C220020F7
:10B790002822002017210180418000210171417180
:10B7A0001B218171C17170472DE9FE4F81460F4603
:10B7B000924698460FB1002612E0684600F0BCFBA6
:10B7C0006A460021484603F0AFFC009E22480078FC
:10B7D00028B99DF8090010B90520BDE8FE8F00BF0B
:10B7E00052463146484605F0DBFF0446002221461A
:10B7F0004846FEF7E7FD0D2C1CD005DCCCB1082C2B
:10B800001AD00B2C1BD118E0112C04D0A4F54050F9
:10B810000238A0B90FE03A46104801784846FCF7D4
:10B820004FFD52460E4801784846FCF749FD002579
:10B8300007E000BF00BF00BF00BF254601E00325B1
:10B8400000BF00BFB8F1000F04D032462146484681
:10B85000FEF798FA2846C0E7A4220020AE22002076
:10B86000AD22002070B505460E46314628467EDFE3
:10B870000446042C00D11124204670BD70B5044646
:10B880000D46164600BF0B4801782046FCF702FD26
:10B8900070B1204603F0F2FB28B13246294620461B
:10B8A00003F0F6FB04E0324629462046FEF748F84E
:10B8B00070BD0000942200202DE9F0410446884626
:10B8C0000A4801782046FCF7E5FC0646084801785E
:10B8D0002046FCF7DFFC0746012332463946204666
:10B8E000FFF762FF0546BDE8F0810000AD220020B1
:10B8F000AE22002070B505460C46002624B1214634
:10B900002846FFF7AFFF0646304670BD2DE9F041EF
:10B91000064600274748D0F8008078E016B1344644
:10B92000E66947E04448007800EB40014248001DCA
:10B9300000EBC105001F0078401C3F490870084615
:10B9400000788978884202D100203B4908706C68F1
:10B95000287801281AD0022802D0032817D107E03E
:10B96000686806F083F900B10127002020744EE0DA
:10B9700007E030490868002101742E4AC16911604E
:10B9800000BF2C4800680028F3D140E000E03EE012
:10B9900000BF207C00B13AE0A8686060E868A06061
:10B9A0002869E0606869A0612448007808B1002037
:10B9B000606000BF224960680968401A20F07F403B
:10B9C0002049884208D21E496068096806F0E0F8FC
:10B9D000A168084420600FE019486168006806F01B
:10B9E000D7F80546A068A84203D9A068401B20608C
:10B9F00001E00020206000BF00206060A060012006
:10BA000020740020E061204606F0FCF800BF002E04
:10BA100084D109480078084949788842F8D11FB98B
:10BA200004480068404502D00120BDE8F0810020B4
:10BA3000FBE70000F0220020142B0020032300204D
:10BA4000F4220020FFFF7F0070B586B00546002677
:10BA500018216846FAF731FDADF802504FF6FF7035
:10BA6000854201D106B070BD2846FFF7F7F80446BD
:10BA700044B10B2C0FD0112C0BD0A4F54050023840
:10BA800088B90FE00E208DF800006846FEF7BAF97D
:10BA90000EE001260CE00F208DF800006846FEF74E
:10BAA000B1F905E004E02146284605F0AFFA00BFF1
:10BAB00000BF3246034801782846FCF701FC00BF6E
:10BAC000D0E700005D22002070B505460C462246F6
:10BAD000024801782846FCF7F3FB70BD5C22002089
